:020000040000FA
:10000000F80A0020290300006103000063030000D8
:1000100065030000670300006903000000000000A2
:100020000000000000000000000000004167000028
:100030006D03000000000000616600009D6D00007F
:10004000F52A0000092B00001D2B0000312B0000B9
:10005000452B0000592B00006D2B0000812B000068
:10006000952B0000A92B0000BD2B0000D12B000018
:10007000E52B0000F92B00000D2C0000212C0000C6
:10008000352C0000492C00005D2C0000712C000074
:10009000852C0000992C0000AD2C0000C12C000024
:1000A000D52C0000E92C0000FD2C0000112D0000D3
:1000B000252D0000392D00004D2D0000612D000080
:1000C000752D00008D2D0000A52D0000BD2D000018
:1000D000D52D0000ED2D0000052E00001D2E000086
:1000E000352E00004D2E0000652E00007D2E0000F4
:1000F000952E0000AD2E0000C52E0000DD2E000064
:10010000F52E00000D2F0000252F00003D2F0000D0
:10011000552F00006D2F0000852F00009D2F00003F
:10012000B52F0000CD2F0000E52F0000FD2F0000AF
:10013000153000002D300000453000005D3000001B
:10014000753000008D300000A5300000BD3000008B
:10015000D5300000ED300000053100001D310000F9
:10016000353100004D310000653100007D31000067
:1001700095310000AD310000C5310000DD310000D7
:10018000F53100000D320000253200003D32000044
:10019000553200006D320000853200009D320000B3
:1001A000B5320000CD320000E5320000FD32000023
:1001B000153300002D330000453300005D3300008F
:1001C000753300008D330000A5330000BD330000FF
:1001D000D5330000ED330000053400001D3400006D
:1001E000353400004D340000653400007D340000DB
:1001F00095340000AD340000C5340000DD3400004B
:10020000F53400000D350000253500003D350000B7
:10021000553500006D350000853500009D35000026
:10022000B5350000CD350000E5350000FD35000096
:10023000153600002D360000453600005D36000002
:1002400075360000A93800002D40000091410000E3
:1002500041460000730300007303000073030000B5
:10026000B1480000654E0000FD5200001557000027
:100270002D5900008D5C00006160000015620000D7
:1002800000F002F800F040F80AA090E8000C824468
:100290008344AAF10107DA4501D100F035F8AFF245
:1002A000090EBAE80F0013F0010F18BFFB1A43F054
:1002B0000103184778C7000098C70000103A24BF10
:1002C00078C878C1FAD8520724BF30C830C144BFBB
:1002D00004680C60704700000023002400250026FD
:1002E000103A28BF78C1FBD8520728BF30C148BF99
:1002F0000B6070471FB50CF077FA9DE8030000F023
:10030000AFF91FBD10B510BD00F03EFA1146FFF762
:10031000F1FF08F071FE00F05CFA03B4FFF7F2FFA2
:1003200003BC00F005FA000015484FF01F01016002
:1003300014484FF07701016013484FF077010160D6
:1003400012484FF4885101600E484FF07601016069
:100350000D484FF0760101600D4880470D48004779
:10036000FEE7FEE7FEE7FEE7FEE7FEE7FEE7FEE765
:10037000FEE7FEE708480949094A0A4B70470000B2
:1003800010080540040805400C0805400008054019
:10039000096F000081020000F8CAFF1FF80A002060
:1003A000F8EAFF1FF8EAFF1F70B50446051F00F0CA
:1003B0003DF90068002C14BF446870BD002C18BFC4
:1003C000AC423CBF20466468F8D301680A18AA42D0
:1003D00018BF456003D12A680546114401602868AA
:1003E0004119A1421CBF6C6070BD616869602168E1
:1003F0000844286070BD7047704770477047704769
:10040000BFFFDFFFFFFEFFFFFFFFFFFFFFFFFFFF5D
:10041000FFFFFFFFFFFFFFFFFFFFFFFFFFFFFFFFEC
:1004200070B5064600F002F9056806F10B0020F0F1
:100430000704B4429CBF002070BD2B466A68BAB165
:100440001068A04210D304F1080188423CBF5068F4
:10045000586007D35168101941601168091B016089
:1004600058601460101D70BD13465268002AE7D111
:100470002146284600F0E0F80028DED170BD032AAE
:1004800040F2308010F0030C00F0158011F8013BB1
:10049000BCF1020F624498BF11F801CB00F8013B98
:1004A00038BF11F8013BA2F1040298BF00F801CB5C
:1004B00038BF00F8013B11F0030300F00781083A50
:1004C000C0F0088051F8043B083A51F804CBA0E88A
:1004D0000810F5E7121D5CBF51F8043B40F8043BDF
:1004E000AFF30080D20724BF11F8013B11F801CB14
:1004F00048BF11F8012B24BF00F8013B00F801CBE5
:1005000048BF00F8012B704702F0FF0343EA0322C3
:1005100042EA024200F024B84FF000020429C0F081
:10052000128010F0030C00F01B80CCF1040CBCF125
:10053000020F18BF00F8012BA8BF20F8022BA1EB77
:100540000C0100F00DB85FEAC17C24BF00F8012B5C
:1005500000F8012B48BF00F8012B70474FF0000254
:1005600000B5134694469646203922BFA0E80C50A9
:10057000A0E80C50B1F12001BFF4F7AF090728BF84
:10058000A0E80C5048BF0CC05DF804EB890028BF00
:1005900040F8042B08BF704748BF20F8022B11F029
:1005A000804F18BF00F8012B7047000000000000CA
:1005B00030B44FF0013C50F8042B51F8043BCCFA16
:1005C00052F4D51A20D1FCB950F8042B51F8043B51
:1005D000CCFA52F4D51A17D1B4B950F8042B51F80B
:1005E000043BCCFA52F4D51A0ED16CB950F8042B56
:1005F00051F8043BCCFA52F4D51A05D1002CDAD0CC
:1006000030BC4FF00000704729BAB1FA81F111F007
:100610001801D1F120008440F2D1CA40CB4012F041
:10062000FF0213F0FF0330BCD01A70470048704738
:100630007880FF1F7047704738B504460A4600208F
:100640006946AFF30080002808BF38BD0246009914
:10065000204600F077F8012038BD012000F08CB86A
:10066000F8B5AFF30080054600200C46102000BF0F
:100670000646A819A0420DD9324669460020AFF3BC
:100680000080070008BF00F077F80098A04218BF6C
:100690000546C419FFF7CAFF05600746F01D20F0A4
:1006A00007004619284600F00AF8B44208BFF8BD12
:1006B000A21B31463868BDE8F84000F043B800217D
:1006C0000160C0E9011070471020704710B5203A52
:1006D000C0F00B80B1E81850A0E81850B1E81850ED
:1006E000A0E81850203ABFF4F5AF5FEA027C24BFBF
:1006F000B1E81850A0E8185044BF18C918C0BDE8A8
:1007000010405FEA827C24BF51F8043B40F8043B70
:1007100008BF7047D20728BF31F8023B48BF11F825
:10072000012B28BF20F8023B48BF00F8012B70477F
:1007300001491820ABBEFEE72600020000487047C2
:100740007080FF1F034640688C46002818BF88420F
:100750003CBF03464068F8D318681844884207D065
:100760000CF1030020F00700001D411A521A014647
:10077000081D0A60FFF718BE10B500F039F8BDE893
:10078000104000F02FB870477546FFF7D7FFAE4610
:1007900005006946534620F00700854618B020B58D
:1007A000FFF7E8FDBDE820404FF000064FF00007DE
:1007B0004FF000084FF0000BAC46ACE8C009ACE8C5
:1007C000C009ACE8C009ACE8C00921F007018D46BA
:1007D000704710B50446AFF300802046BDE81040D6
:1007E000FFF79BBD002801D0FFF7A2BF70470000B4
:1007F00010B5012805D0002103A000F021F8012048
:1008000010BD09A1F8E7000053494752544D454D2A
:100810003A204F7574206F662068656170206D65A1
:100820006D6F7279000000003A2048656170206D9C
:10083000656D6F727920636F727275707465640094
:1008400070B505460C460A2000E06D1C00F011F85A
:1008500035B128780028F8D102E0641C00F009F8CE
:1008600014B120780028F8D1BDE870400A20AFF319
:10087000008008B569468DF800000320ABBE08BDB6
:10088000704700007047000070470000704700008C
:10089000704700007047000070470000704700007C
:1008A00080B584B045F20040C4F20100402106F05A
:1008B0006DFE01281ED1FFE745F20040C4F20100A1
:1008C000402106F003FEEFF311814FF0500080F35A
:1008D0001188BFF36F8FBFF34F8F02910190029881
:1008E0000090012007F0DCFC00980390039880F34F
:1008F0001188FFE704B080BD80B58AB00520019063
:1009000003210122039201F0DBFB08A8029000F012
:10091000D5FE06A8059000F009FC47F27770C0F2FA
:10092000777042F21021C0F2110100F04BFC0199E6
:100930000298002204928DF8222030238DF8213075
:100940008DF820208DF8241000F0DCFD039B049925
:10095000059807919DF81C2002F0E0028DF81C20FC
:10096000BDF81D2002F47E423132ADF81D209DF805
:100970001FC0BDF81D2042EA0C4263F31F52ADF8C0
:100980001D20120C8DF81F209DF81FC04FF470021F
:1009900002EA0C4202F58032120C8DF81F20BDF8DD
:1009A0001D2063F31F32ADF81D208DF818109DF83F
:1009B0001C1001F07F018DF81C1000F0DBF9FFE73F
:1009C000202000F0E1F8012801D0FFE7F8E75020EF
:1009D00000F0CEFF4FF4404001F0A0FE05F0F0FD26
:1009E000052000F0FBFB0120009000F071FF0020CB
:1009F00000F06EFF009800F035FF0AB080BD0000E7
:100A000080B548F29051C1F6FF71086840F400606B
:100A10000860FFE70120022101F084FD08B9FFE72B
:100A2000F8E7022001F032F880BD000080B594B0F4
:100A30000020089048F2A050C1F6FF70006844F210
:100A40002001C4F205010968C1F30261C8404CF6F7
:100A5000CD41CCF6CC41A0FB01108008079044F2B8
:100A60002040C4F20500007820B9FFE7002000F024
:100A7000E3FBFFE712A8029000F0B6FC0020049010
:100A80008DF848008DF849008DF84A0002204FF497
:100A900040410122059201F013FB029800F022FC74
:100AA00005994FF4803001F013F809A8039001F084
:100AB000E1FA03990498B8220F92032210920D9044
:100AC00010220A920B901F20ADF824002220ADF8CE
:100AD000260048F20040C4F20400069001F06AF9D2
:100AE0000599069801F0CCF8FFE748F20040C4F2FF
:100AF0000400022101F028F9012827D1FFE748F27C
:100B00000040C4F204000190022101F087F801982E
:100B1000052101F019F9012808D1FFE748F200404A
:100B2000C4F20400052101F079F80EE048F200401B
:100B3000C4F2040001F0DCF84FF480300021009191
:100B400000F0C6FF0098139018E0FFE70898013006
:100B500008900898079988420FD9FFE748F20040AB
:100B6000C4F2040001F0C4F84FF48030002100F01A
:100B7000AFFF6FF00700139000E0B6E7139814B0D2
:100B800080BD00007047000080B582B08DF807007E
:100B9000FFE79DF8070040B1FFE79DF8070040F030
:100BA0006900692801D1FFE708E04CF63400C0F283
:100BB000000040F28B5100F0C5FDFFE7FFE744F273
:100BC0003C00C4F2050000789DF807100840C0B250
:100BD000002818BF012002B080BD000080B582B09F
:100BE0008DF8070000200090FFE79DF8070028B16E
:100BF000FFE79DF80700012801D1FFE708E04CF668
:100C00003400C0F2000040F2D92100F09BFDFFE764
:100C1000FFE7FFE744F2FE30C4F205000088C0079A
:100C200008B1FFE708E04CF63400C0F2000040F2E3
:100C3000DA2100F087FDFFE7FFE79DF80700B0B974
:100C4000FFE744F22600C4F20500007800F0070038
:100C5000022804D1FFE76FF00500009006E044F29F
:100C60002741C4F2050101200870FFE706E044F2C5
:100C70002741C4F2050100200870FFE7A02000F022
:100C800093FD009802B080BD80B582B08DF807005A
:100C900000200090FFE79DF8070028B1FFE79DF8CE
:100CA0000700012801D1FFE708E04CF63400C0F24C
:100CB000000040F2E54100F045FDFFE7FFE7FFE7F8
:100CC00044F2FE30C4F205000088C00708B1FFE717
:100CD00008E04CF63400C0F2000040F2E64100F0BB
:100CE00031FDFFE7FFE79DF80700B0B9FFE744F2E9
:100CF0002600C4F20500007800F00700052804D1A2
:100D0000FFE76FF00500009006E044F22A01C4F20C
:100D1000050101200870FFE729E044F20010C4F249
:100D200005000068C1B20020B0EBD11F07D1FFE77A
:100D300008204FF4805100F05DFA009006E0012099
:100D40004FF4805100F056FA0090FFE7009868B920
:100D5000FFE744F22A01C4F20501002008702020B8
:100D60004FF4805100F046FA0090FFE7FFE700984B
:100D700002B080BD80B586B00590059820B9FFE728
:100D80006FF002000490CDE1FFE7059801790020A3
:100D9000B0EBD11F07D0FFE7059801790120B0EB38
:100DA000D11F01D1FFE708E04CF63400C0F200008B
:100DB0004FF4976100F0C6FCFFE7FFE7FFE70598F7
:100DC000007900F01F000130182808D8FFE70598C7
:100DD000007900F01F00013008B1FFE708E04CF691
:100DE0003400C0F2000040F2B94100F0ABFCFFE774
:100DF000FFE7FFE70598B0F805006FF35F200130CB
:100E0000B0F5F07F0AD8FFE70598B0F805006FF35A
:100E10005F200130142801D3FFE708E04CF63400CE
:100E2000C0F2000040F2BA4100F08CFCFFE7FFE79F
:100E3000FFE70598C179012000EB1110102809D8AF
:100E4000FFE70598C179012000EB1110022801D3BA
:100E5000FFE708E04CF63400C0F2000040F2BB416E
:100E600000F070FCFFE7FFE7059801790020B0EB88
:100E7000D11F06D1FFE741F20020C0F27A000190B5
:100E800006E048F29C50C1F6FF7000680190FFE751
:100E900001980599097901F01F010131B0FBF1F0CA
:100EA000039003980599B1F805106FF35F210131A4
:100EB00048430290FFE7039847F64001C0F27D11D6
:100EC000884209D8FFE7039844F24021C0F20F019D
:100ED000884201D3FFE708E04CF63400C0F200007E
:100EE0004FF4986100F02EFCFFE7FFE7FFE7029860
:100EF00043F60001C1F69C41884209D8FFE70298F9
:100F000041F60041C0F64E61884201D3FFE708E098
:100F10004CF63400C0F2000040F2C14100F012FC77
:100F2000FFE7FFE7FFE702980599CA79012101EB86
:100F30001211B0FBF1F04CF20021C0F6EB31884207
:100F400010D8FFE702980599CA79012101EB121127
:100F5000B0FBF1F04EF2C011C0F2E401884201D3BF
:100F6000FFE708E04CF63400C0F2000040F2C24156
:100F700000F0E8FBFFE7FFE7FFE70598C07900F026
:100F80000F000130102809D8FFE70598C07900F05C
:100F90000F000130022801D3FFE708E04CF63400CF
:100FA000C0F2000040F2C34100F0CCFBFFE7FFE7D6
:100FB000FFE70598B0F80510012000EB113010286C
:100FC0000AD8FFE70598B0F80510012000EB1130B2
:100FD000022801D3FFE708E04CF63400C0F200001D
:100FE00040F2C44100F0AEFBFFE7FFE7FFE70298E5
:100FF0000599B1F80520012101EB1231B0FBF1F0A8
:101000004CF20021C0F6EB31884211D8FFE702987C
:101010000599B1F80520012101EB1231B0FBF1F087
:101020004EF2C011C0F2E401884201D3FFE708E0AC
:101030004CF63400C0F2000040F2C54100F082FBE3
:10104000FFE7FFE7FFE702980599C97901F00F0173
:101050000131B0FBF1F04CF20021C0F6EB318842D7
:1010600010D8FFE702980599C97901F00F01013105
:10107000B0FBF1F04EF2C011C0F2E401884201D39E
:10108000FFE708E04CF63400C0F2000040F2C64131
:1010900000F058FBFFE7FFE7FFE70598007801281D
:1010A00004D0FFE70598007808B9FFE708E04CF6A0
:1010B0003400C0F200004FF4996100F043FBFFE7F9
:1010C000FFE7FFE744F2FE30C4F205000088C007E6
:1010D00008B1FFE708E04CF63400C0F2000040F22F
:1010E000C94100F02FFBFFE7FFE744F20011C4F213
:1010F00005010868059A1279D20962F3C7100860E1
:101100000598406808600598007828B9FFE7012035
:10111000FFF7BAFD049004E00020FFF7B5FD04904E
:10112000FFE7FFE7049806B080BD000082B00190A1
:1011300000200090019820B9FFE76FF002000090B6
:101140003DE00199002048600199087900F07F0096
:1011500008710199087900F0E0000871019931F8EF
:10116000050F8A7800F47E4013308A700880019A57
:1011700032F8050F917840EA0141012060F31F51D8
:101180001180090C9170019A32F8051F937841EA99
:1011900003434FF6FF7CC0F2F00C03EA0C0303F5A7
:1011A00080331B0C93701180019A32F8051F9378DD
:1011B00060F31F319370118001990870FFE7009868
:1011C00002B0704780B582B00190009101980099FB
:1011D00005F0CAFA05F000FE02B080BD80B582B00D
:1011E0008DF807009DF8070005F00AFD05F0F4FDF5
:1011F00002B080BD80B584B08DF80F000291002050
:1012000001906FF007000090FFE701980299884273
:101210000ED8FFE79DF80F00FFF7B6FC012803D1B9
:10122000FFE70020009003E0019801300190ECE717
:10123000009804B080BD000080B582B08DF8070032
:1012400000200090FFE79DF8070028B1FFE79DF818
:101250000700012801D1FFE708E04CF63400C0F296
:10126000000040F2644100F06DFAFFE7FFE7FFE79E
:1012700044F2FE30C4F205000088C00708B1FFE761
:1012800008E04CF63400C0F2000040F2654100F086
:1012900059FAFFE7FFE79DF80700B0B9FFE744F20E
:1012A0002600C4F20500007800F00700042804D1ED
:1012B000FFE76FF00500009006E044F22041C4F221
:1012C000050101200870FFE706E044F22041C4F266
:1012D000050100200870FFE7A02000F065FA0098E3
:1012E00002B080BD80B582B00190019820B9FFE7BF
:1012F0006FF00200009074E0FFE701980078012889
:1013000004D0FFE70198007808B9FFE708E04CF641
:101310003400C0F2000040F2474100F013FAFFE74A
:10132000FFE7FFE70198407828B1FFE70198407890
:10133000012801D1FFE708E04CF63400C0F20000BC
:101340004FF4896100F0FEF9FFE7FFE7FFE701983E
:10135000807850B1FFE701988078012805D0FFE739
:1013600001988078032801D1FFE708E04CF63400AB
:10137000C0F2000040F2494100F0E4F9FFE7FFE766
:10138000FFE744F2FE30C4F205000088C00708B150
:10139000FFE708E04CF63400C0F2000040F24A419A
:1013A00000F0D0F9FFE7FFE70198407844F22141CF
:1013B000C4F2050108700198807844F22541C4F216
:1013C000050108700198007828B9FFE70120FFF7B0
:1013D00033FF009004E00020FFF72EFF0090FFE7AE
:1013E000FFE7009802B080BD82B00190002000901D
:1013F000019820B9FFE76FF00200009007E0019923
:10140000002008700199487001998870FFE70098E2
:1014100002B0704780B582B08DF8070000200090C0
:10142000FFE79DF8070028B1FFE79DF807000128B6
:1014300001D1FFE708E04CF63400C0F200004FF4A1
:10144000677100F07FF9FFE7FFE7FFE744F2FE3046
:10145000C4F205000088C00708B1FFE708E04CF6B9
:101460003400C0F2000040F29D3100F06BF9FFE75C
:10147000FFE79DF80700A8BBFFE744F22600C4F28F
:101480000500007800F00700032804D1FFE76FF0A3
:101490000500009025E044F20010C4F20500006849
:1014A000C1B20020B0EBD11F13D1FFE744F22A00F4
:1014B000C4F20500007820B9FFE76FF00500009046
:1014C00006E044F23201C4F2050101200870FFE792
:1014D00006E044F23201C4F2050101200870FFE782
:1014E000FFE70CE044F23201C4F20501002008706D
:1014F00008204FF48051FFF77DFE0090FFE7009831
:1015000002B080BD80B582B00190019820B9FFE79C
:101510006FF002000090CBE0FFE70198007801280F
:1015200004D0FFE70198007808B9FFE708E04CF61F
:101530003400C0F200004FF45F7100F003F9FFE7E0
:10154000FFE7FFE70198407878B1FFE7019840781E
:1015500010280AD0FFE701984078202805D0FFE73F
:1015600001984078302801D1FFE708E04CF63400BC
:10157000C0F2000040F27D3100F0E4F8FFE7FFE741
:10158000FFE70198807828B1FFE70198807840282C
:1015900001D1FFE708E04CF63400C0F2000040F251
:1015A0007E3100F0CFF8FFE7FFE7FFE70198C07852
:1015B000802804D0FFE70198C07808B9FFE708E069
:1015C0004CF63400C0F2000040F27F3100F0BAF86F
:1015D000FFE7FFE7FFE701980079012828D0FFE740
:1015E00001980079022823D0FFE7019800790328A9
:1015F0001ED0FFE701980079042819D0FFE7019871
:101600000079052814D0FFE70198007906280FD04B
:10161000FFE70198007907280AD0FFE701980079D1
:10162000082805D0FFE701980079092801D1FFE7D4
:1016300008E04CF63400C0F200004FF4607100F096
:1016400081F8FFE7FFE7FFE744F2FE30C4F2050050
:101650000088C00708B1FFE708E04CF63400C0F28C
:10166000000040F2813100F06DF8FFE7FFE70198DC
:10167000007944F2A201C4F2050108700198427891
:101680008178C0781043084344F21041C4F2050148
:1016900008700198007828B9FFE70120FFF7BAFE2B
:1016A000009004E00020FFF7B5FE0090FFE7FFE7A1
:1016B000009802B080BD00007047000082B0019029
:1016C00000200090019820B9FFE76FF00200009021
:1016D0000EE001990120087001990020887001999D
:1016E000487001998020C870019905200871FFE7B2
:1016F000009802B07047000080B544F20040C4F288
:1017000002004FF4803105F057FC012810D1FFE7AB
:1017100044F20040C4F202004FF4803105F00EFCA8
:1017200048F2D001C1F6FF71086801300860FFE798
:1017300080BD000070470000704700007047000047
:101740007047000082B001900091FFE7FEE70000C3
:1017500083B0029048F2A050C1F6FF70006844F2D6
:101760002001C4F205010968C1F30261C84041F2D9
:101770006F71084441F6F111C0F27651A0FB0110DF
:10178000C0090090FFE70298411E029150B1FFE7A7
:1017900000980190FFE70198411E019108B1FFE711
:1017A000F9E7F0E703B0704783B0029048F2A05029
:1017B000C1F6FF70006844F22001C4F20501096817
:1017C000C1F30261C84048F67F51C0F25B01084492
:1017D00049F68171C1F25E61A0FB0110C00C00905E
:1017E000FFE70298411E029150B1FFE70098019077
:1017F000FFE70198411E019108B1FFE7F9E7F0E723
:1018000003B0704770470000704700007047000049
:1018100070470000704700007047000070470000EC
:1018200070470000704700007047000070470000DC
:1018300070470000704700007047000070470000CC
:1018400070470000704700007047000070470000BC
:1018500070470000704700007047000070470000AC
:101860007047000080B582B08DF80700FFE79DF853
:10187000070028B1FFE79DF80700012801D1FFE725
:1018800008E04CF66600C0F2000040F27111FFF76C
:1018900059FFFFE7FFE7FFE740F20040C4F2010015
:1018A0000068012801D1FFE708E04CF66600C0F2AD
:1018B00000004FF4B971FFF745FFFFE7FFE79DF820
:1018C000070048F24011C4F22021086002B080BD38
:1018D00080B582B08DF80700FFE79DF8070028B1BA
:1018E000FFE79DF80700012801D1FFE708E04CF66B
:1018F0006600C0F2000040F26311FFF723FFFFE72C
:10190000FFE7FFE740F20040C4F201000068012851
:1019100001D1FFE708E04CF66600C0F200004FF48A
:10192000B271FFF70FFFFFE7FFE79DF8070048F2EE
:101930006011C4F22021086002B080BD7047000031
:10194000704700007047000040F20041C4F20101FE
:10195000002008607047000040F20041C4F201011D
:1019600040F22310086043F2102008607047000026
:1019700080B584B0029000200190FFE740F2004063
:10198000C4F201000068012801D1FFE708E04CF62D
:101990006600C0F2000040F24F11FFF7D3FEFFE7F0
:1019A000FFE7FFE70298F02801D8FFE708E04CF6D0
:1019B0006600C0F200004FF4A871FFF7C3FEFFE716
:1019C000FFE740F20841C4F201010868029A1209D7
:1019D00062F307100860FFE7029840F20841C4F282
:1019E0000101096801F0F001884220D0FFE7019869
:1019F00001300190019848F2A051C1F6FF710968C9
:101A000044F22002C4F205021268C2F30262D1401D
:101A100041F25972CDF2B712A1FB0221B0EB913F16
:101A200004D9FFE76FF00700039003E0D4E700203C
:101A30000390FFE7039804B080BD000070470000EA
:101A400070470000704700007047000070470000BA
:101A500070470000704700007047000070470000AA
:101A6000704700007047000070470000704700009A
:101A7000704700007047000070470000704700008A
:101A800070470000704700007047000080B582B0CA
:101A90000190FFE7019840B1FFE701984FF6FF7111
:101AA0000843884201D1FFE708E04CF62F10C0F24E
:101AB000000040F20F21FFF745FEFFE7FFE7019826
:101AC00041F25801C4F20501086002B080BD000077
:101AD00080B582B001908DF80310FFE7019850B1F6
:101AE000FFE701984CF21151C8F6F37108438842A0
:101AF00001D1FFE707E04CF69800C0F20000712129
:101B0000FFF720FEFFE7FFE7FFE79DF8030028B19E
:101B1000FFE79DF80300012801D1FFE707E04CF63D
:101B20009800C0F200007221FFF70CFEFFE7FFE70C
:101B3000FFE748F21000C4F204000068C00708B1D3
:101B4000FFE707E04CF69800C0F200007321FFF7B2
:101B5000F9FDFFE7FFE79DF80300012809D1FFE742
:101B6000019A48F20001C4F2040108689043086039
:101B700008E0019A48F20001C4F204010868104329
:101B80000860FFE702B080BD80B582B001908DF89B
:101B90000310FFE7019850B1FFE7019848F2FF7189
:101BA000C0F207010843884201D1FFE707E04CF685
:101BB0009800C0F200009621FFF7C4FDFFE7FFE7A1
:101BC000FFE79DF8030028B1FFE79DF80300012817
:101BD00001D1FFE707E04CF69800C0F20000972122
:101BE000FFF7B0FDFFE7FFE79DF80300012809D1EB
:101BF000FFE7019A48F20801C4F204010868904323
:101C0000086008E0019A48F20801C4F2040108687B
:101C100010430860FFE702B080BD000080B582B0CD
:101C200001900091FFE7019848F20041C4F20401DD
:101C3000884201D1FFE708E04CF6CA00C0F200007C
:101C400040F22511FFF77EFDFFE7FFE7FFE7009871
:101C500038B1FFE7009840F00700072801D1FFE7FF
:101C600008E04CF6CA00C0F200004FF49371FFF791
:101C700069FDFFE7FFE700980199086202B080BDA7
:101C800080B582B001908DF80310FFE7019848F20B
:101C90000041C4F20401884201D1FFE708E04CF69C
:101CA000CA00C0F200004FF4C871FFF74BFDFFE718
:101CB000FFE7FFE79DF8030028B1FFE79DF8030069
:101CC000012801D1FFE708E04CF6CA00C0F200008D
:101CD00040F29111FFF736FDFFE7FFE79DF80300A3
:101CE00048F28011C4F29021086002B080BD00006B
:101CF00080B582B00190FFE7019848F20041C4F23C
:101D00000401884201D1FFE707E04CF6CA00C0F2A7
:101D10000000FA21FFF716FDFFE7FFE70199002019
:101D2000C860019A07211162019908600199486011
:101D300001990861019948610199886102B080BDEB
:101D4000704700007047000080B582B0019000919C
:101D5000FFE7019848F20041C4F20401884201D132
:101D6000FFE708E04CF6CA00C0F200004FF48971AA
:101D7000FFF7E8FCFFE7FFE7FFE7009838B1FFE770
:101D8000009840F00700072801D1FFE708E04CF673
:101D9000CA00C0F2000040F21311FFF7D3FCFFE7C6
:101DA000FFE70198C06900990840002818BF01208A
:101DB00002B080BD80B584B00390029100200190F4
:101DC000FFE7039848F20041C4F20401884201D1C0
:101DD000FFE707E04CF6CA00C0F20000B821FFF7A9
:101DE000B1FCFFE7FFE7029820B9FFE76FF00200C0
:101DF000019039E1FFE70298406840B3FFE702989D
:101E00004068102823D0FFE70298406820281ED0A1
:101E1000FFE702984068302819D0FFE70298406831
:101E2000402814D0FFE70298406850280FD0FFE701
:101E30000298406860280AD0FFE70298406870283E
:101E400005D0FFE702984068802801D1FFE707E04E
:101E50004CF6CA00C0F20000BE21FFF773FCFFE79A
:101E6000FFE7FFE70298806878B1FFE70298806893
:101E700001280AD0FFE702988068022805D0FFE712
:101E800002988068032801D1FFE707E04CF6CA00FA
:101E9000C0F20000BF21FFF755FCFFE7FFE7FFE7B7
:101EA0000298C06830B1FFE70298C068B0F5004FF3
:101EB00001D1FFE707E04CF6CA00C0F20000C021E4
:101EC000FFF740FCFFE7FFE7FFE70298006960B11A
:101ED000FFE702980069B0F5805F06D0FFE702983F
:101EE0000069B0F5005F01D1FFE707E04CF6CA00DA
:101EF000C0F20000C121FFF725FCFFE7FFE7FFE785
:101F00000298406990B1FFE702984069B0F5807F80
:101F10000CD0FFE702984069B0F5007F06D0FFE7DC
:101F200002984069B0F5407F01D1FFE707E04CF629
:101F3000CA00C0F20000C221FFF704FCFFE7FFE780
:101F4000FFE70298806968B3FFE7029880698028FC
:101F500028D0FFE702988069882823D0FFE70298FD
:101F6000806990281ED0FFE702988069982819D0D0
:101F7000FFE702988069A02814D0FFE702988069E3
:101F8000A8280FD0FFE702988069B0280AD0FFE7A1
:101F900002988069B82805D0FFE702988069C028B8
:101FA00001D1FFE707E04CF6CA00C0F20000C321F0
:101FB000FFF7C8FBFFE7FFE7FFE70298C06978B1CA
:101FC000FFE70298C06901280AD0FFE70298C069BC
:101FD000022805D0FFE70298C069032801D1FFE776
:101FE00007E04CF6CA00C0F20000C421FFF7AAFBCC
:101FF000FFE7FFE7FFE70298006A28B1FFE70298D2
:10200000006A102801D1FFE707E04CF6CA00C0F2D1
:102010000000C521FFF796FBFFE7FFE70298008865
:1020200003990860029840880399486002994868BB
:1020300089680843039908610299C868D1F810C0FB
:102040004B698A6940EA0C0018431043C969084388
:1020500003994861039880690299096A090961F343
:10206000041003998861FFE7019804B080BD000067
:102070007047000083B0029000200190029820B9C0
:10208000FFE76FF00200019017E002990020009036
:1020900008800299488002994860029988600299F4
:1020A000C8600299086102994861029A8021916191
:1020B0000299C86102990862FFE7019803B070476E
:1020C00080B584B08DF80F00ADF80C108DF80B20A2
:1020D000FFE743F6FC30C4F205000088C00708B1F2
:1020E000FFE708E04CF6FC00C0F2000040F281215E
:1020F000FFF728FBFFE7FFE7FFE79DF80F00C8B1F8
:10210000FFE79DF80F00012814D0FFE79DF80F00AE
:1021100002280FD0FFE79DF80F0003280AD0FFE741
:102120009DF80F00042805D0FFE79DF80F00052853
:1021300001D1FFE708E04CF6FC00C0F2000040F2DD
:102140008221FFF7FFFAFFE7FFE7FFE7BDF80C008A
:1021500028B1FFE7BDF80C0008B1FFE708E04CF636
:10216000FC00C0F2000040F28321FFF7EBFAFFE72A
:10217000FFE700208DF80300FFE79DF803000F281C
:1021800035D8FFE7BDF80C00C007F8B1FFE79DF8B0
:102190000F0080019DF8031000EB810043F6004121
:1021A000C4F20501084401909DF80B00012806D1F6
:1021B000FFE70199088840F40040088005E0019994
:1021C00008886FF3DF300880FFE7FFE7BDF80C00F9
:1021D0004008ADF80C00BDF80C0008B9FFE706E0B8
:1021E000FFE79DF8030001308DF80300C5E704B058
:1021F00080BD000080B588B08DF81F00ADF81C10C0
:10220000069200200390069820B9FFE76FF00200C5
:10221000039073E1FFE743F6FC30C4F20500008849
:10222000C00708B1FFE708E04CF6FC00C0F2000070
:102230004FF48071FFF786FAFFE7FFE7FFE79DF8AD
:102240001F00C8B1FFE79DF81F00012814D0FFE769
:102250009DF81F0002280FD0FFE79DF81F000328FC
:102260000AD0FFE79DF81F00042805D0FFE79DF87E
:102270001F00052801D1FFE708E04CF6FC00C0F282
:10228000000040F20111FFF75DFAFFE7FFE7FFE70B
:10229000BDF81C0028B1FFE7BDF81C0008B1FFE73E
:1022A00008E04CF6FC00C0F200004FF48171FFF72B
:1022B00049FAFFE7FFE7FFE70698008828B1FFE744
:1022C00006980088012801D1FFE708E04CF6FC00E1
:1022D000C0F2000040F20311FFF734FAFFE7FFE716
:1022E000FFE70698408828B1FFE706984088022853
:1022F00001D1FFE708E04CF6FC00C0F200004FF40B
:102300008271FFF71FFAFFE7FFE7FFE70698808873
:1023100028B1FFE706988088042801D1FFE708E08C
:102320004CF6FC00C0F2000040F20511FFF70AFA7B
:10233000FFE7FFE7FFE70698C08850B1FFE7069880
:10234000C088102805D0FFE70698C088202801D152
:10235000FFE708E04CF6FC00C0F200004FF4837188
:10236000FFF7F0F9FFE7FFE7FFE70698008930B1D4
:10237000FFE706980089B0F5804F01D1FFE708E03C
:102380004CF6FC00C0F2000040F20711FFF7DAF94A
:10239000FFE7FFE7FFE70698408928B1FFE70698C7
:1023A0004089402801D1FFE708E04CF6FC00C0F26C
:1023B00000004FF48471FFF7C5F9FFE7FFE7FFE77F
:1023C0000698808930B1FFE706988089B0F5007FD4
:1023D00001D1FFE708E04CF6FC00C0F2000040F23B
:1023E0000911FFF7AFF9FFE7FFE7FFE70698C0899C
:1023F00030B1FFE70698C089B0F5805F01D1FFE7F3
:1024000008E04CF6FC00C0F200004FF48571FFF7C5
:1024100099F9FFE7FFE7FFE70698008A30B1FFE789
:102420000698008AB0F5004F01D1FFE708E04CF6AE
:10243000FC00C0F2000040F20B11FFF783F9FFE748
:10244000FFE700208DF81700FFE79DF817000F2821
:1024500053D8FFE7BDF81C00C007E8B3FFE70699B3
:10246000019108884A8810438A881043CA8810431B
:102470004A8910438A891043CA891043098908434D
:10248000ADF8140045F27720ADF812000698018AE5
:10249000BDF814000843ADF81400BDF8120040F474
:1024A0000040ADF812009DF81F0080019DF8171044
:1024B00000EB810043F60041C4F20501084402909C
:1024C00002980088BDF812209043BDF81410114006
:1024D000084402990880FFE7BDF81C004008ADF8E9
:1024E0001C00BDF81C0008B9FFE706E0FFE79DF8F7
:1024F000170001308DF81700A7E7FFE7039808B031
:1025000080BD000043F6FC31C4F205014FF42540C4
:102510000880704743F6FC31C4F205014AF20150CD
:102520000880704780B582B08DF80700ADF80410C0
:10253000FFE79DF80700C8B1FFE79DF807000128F5
:1025400014D0FFE79DF8070002280FD0FFE79DF8A1
:10255000070003280AD0FFE79DF80700042805D0EC
:10256000FFE79DF80700052801D1FFE708E04CF6DA
:10257000FC00C0F200004FF4FF71FFF7E3F8FFE743
:10258000FFE7FFE7BDF8040028B1FFE7BDF804004E
:1025900008B1FFE708E04CF6FC00C0F2000040F292
:1025A000FF11FFF7CFF8FFE7FFE79DF807000101F4
:1025B00043F60000C4F20500405ABDF8041008407C
:1025C00080B2002818BF012002B080BD80B582B063
:1025D0008DF80700ADF80410FFE79DF80700C8B1BB
:1025E000FFE79DF80700012814D0FFE79DF80700DA
:1025F00002280FD0FFE79DF8070003280AD0FFE765
:102600009DF80700042805D0FFE79DF8070005287E
:1026100001D1FFE708E04CF6FC00C0F2000040F2F8
:102620004A21FFF78FF8FFE7FFE7FFE7BDF8040057
:1026300028B1FFE7BDF8040008B1FFE708E04CF659
:10264000FC00C0F2000040F24B21FFF77BF8FFE7EF
:10265000FFE79DF8071043F60A00C4F2050000EBFF
:1026600001100090BDF804200099088810430880EC
:1026700002B080BD80B582B08DF80700ADF80410BF
:10268000FFE79DF80700C8B1FFE79DF807000128A4
:1026900014D0FFE79DF8070002280FD0FFE79DF850
:1026A000070003280AD0FFE79DF80700042805D09B
:1026B000FFE79DF80700052801D1FFE708E04CF689
:1026C000FC00C0F200004FF40E71FFF73BF8FFE78B
:1026D000FFE7FFE7BDF8040028B1FFE7BDF80400FD
:1026E00008B1FFE708E04CF6FC00C0F2000040F241
:1026F0003921FFF727F8FFE7FFE79DF8071043F6BA
:102700000800C4F2050000EB01100090BDF80420A1
:10271000009908881043088002B080BD80B582B05F
:10272000ADF80600FFE7BDF8060090B1FFE7BDF881
:102730000600B0F5804F0CD0FFE7BDF80600B0F5FD
:10274000004F06D0FFE7BDF80600B0F5404F01D1BD
:10275000FFE708E04CF6FC00C0F200004FF4ED711A
:10276000FEF7F0FFFFE7FFE7FFE743F6FC30C4F2B8
:1027700005000088C00708B1FFE708E04CF6FC0040
:10278000C0F2000040F2DB11FEF7DCFFFFE7FFE7DD
:1027900043F6F831C4F2050108886FF39F30BDF8A5
:1027A000062002F440421044088002B080BD0000C0
:1027B00083B0029000200190029820B9FFE76FF0EB
:1027C0000200019014E00299002000900880029914
:1027D00048800299C880029908820299088102996A
:1027E0004881029988810299C88102998880FFE70F
:1027F000019803B07047000080B582B08DF80700E3
:10280000ADF80410FFE79DF80700C8B1FFE79DF899
:102810000700012814D0FFE79DF8070002280FD019
:10282000FFE79DF8070003280AD0FFE79DF807009F
:10283000042805D0FFE79DF80700052801D1FFE730
:1028400008E04CF6FC00C0F2000040F26D21FEF7FB
:1028500079FFFFE7FFE7FFE7BDF8040028B1FFE7D6
:10286000BDF8040008B1FFE708E04CF6FC00C0F238
:10287000000040F26E21FEF765FFFFE7FFE79DF8DD
:10288000071043F60C00C4F2050000EB01100090A5
:10289000BDF80420009908881043088002B080BD6C
:1028A00080B582B0019048F2F460C1F6FF70006814
:1028B00088B1FFE748F2F460C1F6FF700068406835
:1028C00048B1FFE748F2F460C1F6FF700068416864
:1028D00001988847FFE702B080BD000080B548F24C
:1028E000F460C1F6FF70006880B1FFE748F2F46061
:1028F000C1F6FF700068006840B1FFE748F2F4607D
:10290000C1F6FF70006801688847FFE780BD0000DE
:1029100082B00090009820B9FFE700208DF80700F2
:1029200009E0009848F2F461C1F6FF7108600120E7
:102930008DF80700FFE79DF8070002B07047000020
:1029400080B548F20000C1F6FF70FFF7E1FF80BDDF
:1029500080B582B08DF8070048F2F460C1F6FF70D0
:10296000006890B1FFE748F2F460C1F6FF700068BC
:10297000406A50B1FFE748F2F460C1F6FF700068AA
:10298000416A9DF807008847FFE702B080BD00005C
:10299000704700007047000070470000704700005B
:1029A000704700007047000070470000704700004B
:1029B000704700007047000070470000704700003B
:1029C000704700007047000070470000704700002B
:1029D000704700007047000070470000704700001B
:1029E000704700007047000070470000704700000B
:1029F00080B584B0039000200190039820B9FFE7D0
:102A00006FF00200019071E0FFE703980088B0F5D5
:102A1000007F01DAFFE707E04CF62F10C0F200005C
:102A2000CD21FEF78FFEFFE7FFE7039908884009F5
:102A300000EB4002202000EB4200B1F90210884276
:102A40000DD8FFE703990888400900EB40022520D4
:102A500000EB4200B1F9021088420AD2FFE7039866
:102A6000B0F90200202804D3FFE76FF002000190C4
:102A70003BE00398B0F9021041F25C00C4F205009B
:102A800000EB81000290029800686FF35F2040F233
:102A9000FF1188420FD1FFE7039800880299086070
:102AA00003994868B1F9022048F29031C1F6FF71EC
:102AB00041F8220018E003980088029909686FF332
:102AC0005F2188420BD1FFE703994868B1F90220E2
:102AD00048F29031C1F6FF7141F8220003E06FF037
:102AE00001000190FFE7FFE7FFE7FFE7019804B06F
:102AF00080BD000080B548F29030C1F6FF700068DC
:102B00008047BFF34F8F80BD80B548F29030C1F64B
:102B1000FF7040688047BFF34F8F80BD80B548F29B
:102B20009030C1F6FF7080688047BFF34F8F80BD43
:102B300080B548F29030C1F6FF70C0688047BFF39F
:102B40004F8F80BD80B548F29030C1F6FF700069AC
:102B50008047BFF34F8F80BD80B548F29030C1F6FB
:102B6000FF7040698047BFF34F8F80BD80B548F24A
:102B70009030C1F6FF7080698047BFF34F8F80BDF2
:102B800080B548F29030C1F6FF70C0698047BFF34E
:102B90004F8F80BD80B548F29030C1F6FF70006A5B
:102BA0008047BFF34F8F80BD80B548F29030C1F6AB
:102BB000FF70406A8047BFF34F8F80BD80B548F2F9
:102BC0009030C1F6FF70806A8047BFF34F8F80BDA1
:102BD00080B548F29030C1F6FF70C06A8047BFF3FD
:102BE0004F8F80BD80B548F29030C1F6FF70006B0A
:102BF0008047BFF34F8F80BD80B548F29030C1F65B
:102C0000FF70406B8047BFF34F8F80BD80B548F2A7
:102C10009030C1F6FF70806B8047BFF34F8F80BD4F
:102C200080B548F29030C1F6FF70C06B8047BFF3AB
:102C30004F8F80BD80B548F29030C1F6FF70006CB8
:102C40008047BFF34F8F80BD80B548F29030C1F60A
:102C5000FF70406C8047BFF34F8F80BD80B548F256
:102C60009030C1F6FF70806C8047BFF34F8F80BDFE
:102C700080B548F29030C1F6FF70C06C8047BFF35A
:102C80004F8F80BD80B548F29030C1F6FF70006D67
:102C90008047BFF34F8F80BD80B548F29030C1F6BA
:102CA000FF70406D8047BFF34F8F80BD80B548F205
:102CB0009030C1F6FF70806D8047BFF34F8F80BDAD
:102CC00080B548F29030C1F6FF70C06D8047BFF309
:102CD0004F8F80BD80B548F29030C1F6FF70006E16
:102CE0008047BFF34F8F80BD80B548F29030C1F66A
:102CF000FF70406E8047BFF34F8F80BD80B548F2B4
:102D00009030C1F6FF70806E8047BFF34F8F80BD5B
:102D100080B548F29030C1F6FF70C06E8047BFF3B7
:102D20004F8F80BD80B548F29030C1F6FF70006FC4
:102D30008047BFF34F8F80BD80B548F29030C1F619
:102D4000FF70406F8047BFF34F8F80BD80B548F262
:102D50009030C1F6FF70806F8047BFF34F8F80BD0A
:102D600080B548F29030C1F6FF70C06F8047BFF366
:102D70004F8F80BD80B548F29030C1F6FF70D0F81B
:102D800080008047BFF34F8F80BD000080B548F2C0
:102D90009030C1F6FF70D0F884008047BFF34F8FAA
:102DA00080BD000080B548F29030C1F6FF70D0F8C9
:102DB00088008047BFF34F8F80BD000080B548F288
:102DC0009030C1F6FF70D0F88C008047BFF34F8F72
:102DD00080BD000080B548F29030C1F6FF70D0F899
:102DE00090008047BFF34F8F80BD000080B548F250
:102DF0009030C1F6FF70D0F894008047BFF34F8F3A
:102E000080BD000080B548F29030C1F6FF70D0F868
:102E100098008047BFF34F8F80BD000080B548F217
:102E20009030C1F6FF70D0F89C008047BFF34F8F01
:102E300080BD000080B548F29030C1F6FF70D0F838
:102E4000A0008047BFF34F8F80BD000080B548F2DF
:102E50009030C1F6FF70D0F8A4008047BFF34F8FC9
:102E600080BD000080B548F29030C1F6FF70D0F808
:102E7000A8008047BFF34F8F80BD000080B548F2A7
:102E80009030C1F6FF70D0F8AC008047BFF34F8F91
:102E900080BD000080B548F29030C1F6FF70D0F8D8
:102EA000B0008047BFF34F8F80BD000080B548F26F
:102EB0009030C1F6FF70D0F8B4008047BFF34F8F59
:102EC00080BD000080B548F29030C1F6FF70D0F8A8
:102ED000B8008047BFF34F8F80BD000080B548F237
:102EE0009030C1F6FF70D0F8BC008047BFF34F8F21
:102EF00080BD000080B548F29030C1F6FF70D0F878
:102F0000C0008047BFF34F8F80BD000080B548F2FE
:102F10009030C1F6FF70D0F8C4008047BFF34F8FE8
:102F200080BD000080B548F29030C1F6FF70D0F847
:102F3000C8008047BFF34F8F80BD000080B548F2C6
:102F40009030C1F6FF70D0F8CC008047BFF34F8FB0
:102F500080BD000080B548F29030C1F6FF70D0F817
:102F6000D0008047BFF34F8F80BD000080B548F28E
:102F70009030C1F6FF70D0F8D4008047BFF34F8F78
:102F800080BD000080B548F29030C1F6FF70D0F8E7
:102F9000D8008047BFF34F8F80BD000080B548F256
:102FA0009030C1F6FF70D0F8DC008047BFF34F8F40
:102FB00080BD000080B548F29030C1F6FF70D0F8B7
:102FC000E0008047BFF34F8F80BD000080B548F21E
:102FD0009030C1F6FF70D0F8E4008047BFF34F8F08
:102FE00080BD000080B548F29030C1F6FF70D0F887
:102FF000E8008047BFF34F8F80BD000080B548F2E6
:103000009030C1F6FF70D0F8EC008047BFF34F8FCF
:1030100080BD000080B548F29030C1F6FF70D0F856
:10302000F0008047BFF34F8F80BD000080B548F2AD
:103030009030C1F6FF70D0F8F4008047BFF34F8F97
:1030400080BD000080B548F29030C1F6FF70D0F826
:10305000F8008047BFF34F8F80BD000080B548F275
:103060009030C1F6FF70D0F8FC008047BFF34F8F5F
:1030700080BD000080B548F29030C1F6FF70D0F8F6
:1030800000018047BFF34F8F80BD000080B548F23C
:103090009030C1F6FF70D0F804018047BFF34F8F26
:1030A00080BD000080B548F29030C1F6FF70D0F8C6
:1030B00008018047BFF34F8F80BD000080B548F204
:1030C0009030C1F6FF70D0F80C018047BFF34F8FEE
:1030D00080BD000080B548F29030C1F6FF70D0F896
:1030E00010018047BFF34F8F80BD000080B548F2CC
:1030F0009030C1F6FF70D0F814018047BFF34F8FB6
:1031000080BD000080B548F29030C1F6FF70D0F865
:1031100018018047BFF34F8F80BD000080B548F293
:103120009030C1F6FF70D0F81C018047BFF34F8F7D
:1031300080BD000080B548F29030C1F6FF70D0F835
:1031400020018047BFF34F8F80BD000080B548F25B
:103150009030C1F6FF70D0F824018047BFF34F8F45
:1031600080BD000080B548F29030C1F6FF70D0F805
:1031700028018047BFF34F8F80BD000080B548F223
:103180009030C1F6FF70D0F82C018047BFF34F8F0D
:1031900080BD000080B548F29030C1F6FF70D0F8D5
:1031A00030018047BFF34F8F80BD000080B548F2EB
:1031B0009030C1F6FF70D0F834018047BFF34F8FD5
:1031C00080BD000080B548F29030C1F6FF70D0F8A5
:1031D00038018047BFF34F8F80BD000080B548F2B3
:1031E0009030C1F6FF70D0F83C018047BFF34F8F9D
:1031F00080BD000080B548F29030C1F6FF70D0F875
:1032000040018047BFF34F8F80BD000080B548F27A
:103210009030C1F6FF70D0F844018047BFF34F8F64
:1032200080BD000080B548F29030C1F6FF70D0F844
:1032300048018047BFF34F8F80BD000080B548F242
:103240009030C1F6FF70D0F84C018047BFF34F8F2C
:1032500080BD000080B548F29030C1F6FF70D0F814
:1032600050018047BFF34F8F80BD000080B548F20A
:103270009030C1F6FF70D0F854018047BFF34F8FF4
:1032800080BD000080B548F29030C1F6FF70D0F8E4
:1032900058018047BFF34F8F80BD000080B548F2D2
:1032A0009030C1F6FF70D0F85C018047BFF34F8FBC
:1032B00080BD000080B548F29030C1F6FF70D0F8B4
:1032C00060018047BFF34F8F80BD000080B548F29A
:1032D0009030C1F6FF70D0F864018047BFF34F8F84
:1032E00080BD000080B548F29030C1F6FF70D0F884
:1032F00068018047BFF34F8F80BD000080B548F262
:103300009030C1F6FF70D0F86C018047BFF34F8F4B
:1033100080BD000080B548F29030C1F6FF70D0F853
:1033200070018047BFF34F8F80BD000080B548F229
:103330009030C1F6FF70D0F874018047BFF34F8F13
:1033400080BD000080B548F29030C1F6FF70D0F823
:1033500078018047BFF34F8F80BD000080B548F2F1
:103360009030C1F6FF70D0F87C018047BFF34F8FDB
:1033700080BD000080B548F29030C1F6FF70D0F8F3
:1033800080018047BFF34F8F80BD000080B548F2B9
:103390009030C1F6FF70D0F884018047BFF34F8FA3
:1033A00080BD000080B548F29030C1F6FF70D0F8C3
:1033B00088018047BFF34F8F80BD000080B548F281
:1033C0009030C1F6FF70D0F88C018047BFF34F8F6B
:1033D00080BD000080B548F29030C1F6FF70D0F893
:1033E00090018047BFF34F8F80BD000080B548F249
:1033F0009030C1F6FF70D0F894018047BFF34F8F33
:1034000080BD000080B548F29030C1F6FF70D0F862
:1034100098018047BFF34F8F80BD000080B548F210
:103420009030C1F6FF70D0F89C018047BFF34F8FFA
:1034300080BD000080B548F29030C1F6FF70D0F832
:10344000A0018047BFF34F8F80BD000080B548F2D8
:103450009030C1F6FF70D0F8A4018047BFF34F8FC2
:1034600080BD000080B548F29030C1F6FF70D0F802
:10347000A8018047BFF34F8F80BD000080B548F2A0
:103480009030C1F6FF70D0F8AC018047BFF34F8F8A
:1034900080BD000080B548F29030C1F6FF70D0F8D2
:1034A000B0018047BFF34F8F80BD000080B548F268
:1034B0009030C1F6FF70D0F8B4018047BFF34F8F52
:1034C00080BD000080B548F29030C1F6FF70D0F8A2
:1034D000B8018047BFF34F8F80BD000080B548F230
:1034E0009030C1F6FF70D0F8BC018047BFF34F8F1A
:1034F00080BD000080B548F29030C1F6FF70D0F872
:10350000C0018047BFF34F8F80BD000080B548F2F7
:103510009030C1F6FF70D0F8C4018047BFF34F8FE1
:1035200080BD000080B548F29030C1F6FF70D0F841
:10353000C8018047BFF34F8F80BD000080B548F2BF
:103540009030C1F6FF70D0F8CC018047BFF34F8FA9
:1035500080BD000080B548F29030C1F6FF70D0F811
:10356000D0018047BFF34F8F80BD000080B548F287
:103570009030C1F6FF70D0F8D4018047BFF34F8F71
:1035800080BD000080B548F29030C1F6FF70D0F8E1
:10359000D8018047BFF34F8F80BD000080B548F24F
:1035A0009030C1F6FF70D0F8DC018047BFF34F8F39
:1035B00080BD000080B548F29030C1F6FF70D0F8B1
:1035C000E0018047BFF34F8F80BD000080B548F217
:1035D0009030C1F6FF70D0F8E4018047BFF34F8F01
:1035E00080BD000080B548F29030C1F6FF70D0F881
:1035F000E8018047BFF34F8F80BD000080B548F2DF
:103600009030C1F6FF70D0F8EC018047BFF34F8FC8
:1036100080BD000080B548F29030C1F6FF70D0F850
:10362000F0018047BFF34F8F80BD000080B548F2A6
:103630009030C1F6FF70D0F8F4018047BFF34F8F90
:1036400080BD000080B548F29030C1F6FF70D0F820
:10365000F8018047BFF34F8F80BD000080B548F26E
:103660009030C1F6FF70D0F8FC018047BFF34F8F58
:1036700080BD000080B582B041F25C20C4F205003C
:103680000068019040F68020C4F2A2200068012862
:1036900008D1FFE79DF80400C00718B1FFE7FEF767
:1036A000D5F9FFE740F68420C4F2A2200068012883
:1036B00009D1FFE79DF804008007002803D5FFE744
:1036C000FEF7C6F9FFE740F68820C4F2A2200068A2
:1036D000012809D1FFE79DF804004007002803D521
:1036E000FFE7FEF7B7F9FFE740F68C20C4F2A2200F
:1036F0000068012809D1FFE79DF8040000070028B1
:1037000003D5FFE7FEF7A8F9FFE740F69020C4F2E3
:10371000A2200068012809D1FFE79DF80400C00637
:10372000002803D5FFE7FEF799F9FFE740F694205C
:10373000C4F2A2200068012809D1FFE79DF8040027
:103740008006002803D5FFE7FEF78AF9FFE740F679
:103750009820C4F2A2200068012809D1FFE79DF853
:1037600004004006002803D5FFE7FEF77BF9FFE7DA
:1037700040F69C20C4F2A2200068012809D1FFE78E
:103780009DF804000006002803D5FFE7FEF76CF95A
:10379000FFE740F6A020C4F2A2200068012808D16B
:1037A000FFE79DF80500C00718B1FFE7FEF75EF9D7
:1037B000FFE740F6A420C4F2A2200068012809D146
:1037C000FFE79DF805008007002803D5FFE7FEF717
:1037D0004FF9FFE740F6A820C4F2A22000680128B4
:1037E00009D1FFE79DF805004007002803D5FFE752
:1037F000FEF740F9FFE740F6AC20C4F2A2200068D3
:10380000012809D1FFE79DF805000007002803D52E
:10381000FFE7FEF731F9FFE740F6B020C4F2A2203F
:103820000068012809D1FFE79DF80500C0060028BF
:1038300003D5FFE7FEF722F9FFE740F6B420C4F214
:10384000A2200068012809D1FFE79DF80500800645
:10385000002803D5FFE7FEF713F9FFE740F6B8208D
:10386000C4F2A2200068012809D1FFE79DF80500F5
:103870004006002803D5FFE7FEF704F9FFE740F60E
:10388000BC20C4F2A2200068012809D1FFE79DF8FE
:1038900005000006002803D5FFE7FEF7F5F8FFE76F
:1038A000BFF34F8F02B080BD80B584B041F260207D
:1038B000C4F205000068039040F6B030C4F2A620C0
:1038C000006801284FD1FFE740F20020C4F2A62093
:1038D000006888B9FFE740F20010C4F2A620006833
:1038E000012808D1FFE79DF80C00C00718B1FFE7D9
:1038F000FDF798FFFFE7FFE740F24020C4F2A62063
:10390000006888B9FFE740F24010C4F2A6200068C2
:10391000012808D1FFE79DF80D00C00718B1FFE7A7
:10392000FDF770FFFFE7FFE743F20400C4F2050074
:10393000006800F00110029043F20C00C4F2050090
:1039400001684FF0011088430190029801990842E4
:1039500008D0FFE79DF80E00C00718B1FFE7FDF79C
:1039600059FFFFE7FFE741F2B030C4F2A62000683C
:10397000012851D1FFE740F20420C4F2A6200068DC
:1039800090B9FFE740F20410C4F2A62000680128B5
:1039900009D1FFE79DF80C008007002803D5FFE759
:1039A000FDF742FFFFE7FFE740F24420C4F2A62004
:1039B000006890B9FFE740F24410C4F2A620006806
:1039C000012809D1FFE79DF80D008007002803D5E5
:1039D000FFE7FDF719FFFFE7FFE743F20400C4F23A
:1039E0000500006800F00210029043F20C00C4F2DF
:1039F000050001684FF00210884301900298019978
:103A0000084208D0FFE79DF80E00C00718B1FFE795
:103A1000FDF702FFFFE7FFE741F6B030C4F2A62052
:103A20000068012851D1FFE740F20820C4F2A62027
:103A3000006890B9FFE740F20810C4F2A6200068C1
:103A4000012809D1FFE79DF80C004007002803D5A5
:103A5000FFE7FDF7EBFEFFE7FFE740F24820C4F287
:103A6000A620006890B9FFE740F24810C4F2A620F3
:103A70000068012809D1FFE79DF80D0040070028E4
:103A800003D5FFE7FDF7C2FEFFE7FFE743F20400BF
:103A9000C4F20500006800F00410029043F20C002C
:103AA000C4F2050001684FF00410884301900298A9
:103AB0000199084208D0FFE79DF80E00C00718B131
:103AC000FFE7FDF7ABFEFFE7FFE742F2B030C4F2DD
:103AD000A6200068012851D1FFE740F20C20C4F273
:103AE000A620006890B9FFE740F20C10C4F2A620AF
:103AF0000068012809D1FFE79DF80C0000070028A5
:103B000003D5FFE7FDF794FEFFE7FFE740F24C2007
:103B1000C4F2A620006890B9FFE740F24C10C4F24E
:103B2000A6200068012809D1FFE79DF80D000007D5
:103B3000002803D5FFE7FDF76BFEFFE7FFE743F241
:103B40000400C4F20500006800F00810029043F27F
:103B50000C00C4F2050001684FF008108843019082
:103B600002980199084208D0FFE79DF80E00C007AF
:103B700018B1FFE7FDF754FEFFE7FFE748F6B03066
:103B8000C4F2A6200068012852D1FFE748F20020C5
:103B9000C4F2A620006890B9FFE748F20010C4F212
:103BA000A6200068012809D1FFE79DF80C00C00697
:103BB000002803D5FFE7FDF74DFEFFE7FFE748F2DA
:103BC0004020C4F2A620006890B9FFE748F24010F8
:103BD000C4F2A6200068012809D1FFE79DF80D0076
:103BE000C006002803D5FFE7FDF724FEFFE7FFE747
:103BF00043F20440C4F20500006800F00110029096
:103C000043F20C40C4F2050001684FF001108843F4
:103C1000019002980199084209D0FFE79DF80E0033
:103C20008007002803D5FFE7FDF70CFEFFE7FFE75D
:103C300049F2B030C4F2A6200068012852D1FFE753
:103C400048F20420C4F2A620006890B9FFE748F2C9
:103C50000410C4F2A6200068012809D1FFE79DF8EE
:103C60000C008006002803D5FFE7FDF7F5FDFFE710
:103C7000FFE748F24420C4F2A620006890B9FFE7AD
:103C800040F24410C4F2A6200068012809D1FFE7E1
:103C90009DF80D008006002803D5FFE7FDF7CCFD59
:103CA000FFE7FFE743F20440C4F20500006800F0BC
:103CB0000210029043F20C40C4F2050001684FF07C
:103CC00002108843019002980199084209D0FFE749
:103CD0009DF80E008007002803D5FFE7FDF7B4FD2F
:103CE000FFE7FFE749F6B030C4F2A62000680128DC
:103CF00052D1FFE748F20820C4F2A620006890B92C
:103D0000FFE748F20810C4F2A6200068012809D194
:103D1000FFE79DF80C004006002803D5FFE7FDF7FC
:103D20009DFDFFE7FFE748F24820C4F2A6200068A7
:103D300090B9FFE740F24810C4F2A62000680128BD
:103D400009D1FFE79DF80D004006002803D5FFE7E5
:103D5000FDF774FDFFE7FFE743F20440C4F20500FE
:103D6000006800F00410029043F20C40C4F2050019
:103D700001684FF0041088430190029801990842AD
:103D800009D0FFE79DF80E008007002803D5FFE764
:103D9000FDF75CFDFFE7FFE74AF2B030C4F2A62072
:103DA0000068012852D1FFE748F20C20C4F2A62097
:103DB000006890B9FFE748F20C10C4F2A620006832
:103DC000012809D1FFE79DF80C000006002803D563
:103DD000FFE7FDF745FDFFE7FFE748F24C20C4F29F
:103DE000A620006890B9FFE740F24C10C4F2A6206C
:103DF0000068012809D1FFE79DF80D0000060028A2
:103E000003D5FFE7FDF71CFDFFE7FFE743F20440A2
:103E1000C4F20500006800F00810029043F20C4064
:103E2000C4F2050001684FF0081088430190029821
:103E30000199084209D0FFE79DF80E00800700288D
:103E400003D5FFE7FDF704FDFFE7FFE748F2003089
:103E5000C4F220200068012812D1FFE740F2104090
:103E6000C4F201000068000748B1FFE79DF80E00AA
:103E70004007002803D5FFE7FDF764FDFFE7FFE7F4
:103E800048F20830C4F220200068012812D1FFE770
:103E900048F21420C4F220200068012809D1FFE76D
:103EA0009DF80E000007002803D5FFE7FDF746FD4B
:103EB000FFE7FFE748F20430C4F220200068012841
:103EC00012D1FFE748F21020C4F220200068012838
:103ED00009D1FFE79DF80E00C006002803D5FFE7D3
:103EE000FDF72EFDFFE7FFE70C20C9F60040006854
:103EF0000006002809D5FFE79DF80E0040060028BF
:103F000003D5FFE702F0DEFBFFE77C20C4F2A4202C
:103F1000006801281CD1FFE742F21800C4F2050036
:103F20000068029042F20400C4F2050000680190AB
:103F3000029801990840400648B1FFE79DF80E003D
:103F40000006002803D5FFE7FDF7F4FBFFE7FFE7D6
:103F500048F27C00C4F2A420006801281BD1FFE7CE
:103F600042F21840C4F205000068029042F2044098
:103F7000C4F20500006801900298019908404006CB
:103F800040B1FFE79DF80F00C00718B1FFE7FDF74C
:103F9000D3FBFFE7FFE77C20C4F2A52000680128DF
:103FA0001CD1FFE742F61800C4F205000068029039
:103FB00042F60400C4F205000068019002980199DD
:103FC0000840400648B1FFE79DF80F008007002831
:103FD00003D5FFE7FDF7B2FBFFE7FFE748F27C0000
:103FE000C4F2A520006801281CD1FFE742F6184062
:103FF000C4F205000068029042F60440C4F20500D5
:1040000000680190029801990840400648B1FFE716
:104010009DF80F004007002803D5FFE7FDF790FB50
:10402000FFE7FFE7BFF34F8F04B080BD80B582B0DC
:1040300041F26420C4F205000068019040F20820BB
:10404000C4F248200068012811D1FFE740F2802027
:10405000C4F248200068012808D1FFE79DF8040059
:10406000C00718B1FFE702F061FFFFE7FFE740F28A
:104070004820C4F248200068012812D1FFE740F22E
:10408000C020C4F248200068012809D1FFE79DF84C
:1040900004008007002803D5FFE702F049FFFFE78F
:1040A000FFE748F20820C4F248200068012812D136
:1040B000FFE748F28020C4F248200068012809D1B7
:1040C000FFE79DF804004007002803D5FFE702F052
:1040D00031FFFFE7FFE748F24820C4F248200068BC
:1040E000012812D1FFE748F2C020C4F2482000683E
:1040F000012809D1FFE79DF804000007002803D537
:10410000FFE702F019FFFFE7FFE744F24000C4F2C7
:1041100005000078C00790B1FFE744F24100C4F207
:1041200005000078C00748B1FFE79DF8060080064B
:10413000002803D5FFE7FDF7BFFAFFE7FFE74CF2E2
:104140000040C4F204000088C004002809D5FFE73D
:104150009DF806004006002803D5FFE702F07CFA30
:10416000FFE749F20440C4F20400006810F4403F45
:1041700009D0FFE79DF806000006002803D5FFE7F9
:1041800002F0F0FAFFE7BFF34F8F02B080BD0000EE
:1041900080B584B041F26820C4F205000068039045
:1041A00040F68020C4F230200068012811D1FFE7DA
:1041B00040F60060C4F230200068012808D1FFE713
:1041C0009DF80C00C00718B1FFE703F019F9FFE7ED
:1041D000FFE740F68420C4F230200068012812D1A5
:1041E000FFE740F60460C4F230200068012809D1DE
:1041F000FFE79DF80C008007002803D5FFE703F0D8
:1042000001F9FFE7FFE740F68820C4F2302000689C
:10421000012812D1FFE740F60860C4F230200068A0
:10422000012809D1FFE79DF80C004007002803D5BD
:10423000FFE703F0E9F8FFE7FFE740F68C20C4F260
:1042400030200068012812D1FFE740F60C60C4F26C
:1042500030200068012809D1FFE79DF80C00000715
:10426000002803D5FFE703F0D1F8FFE7FFE740F6AA
:104270009020C4F230200068012812D1FFE740F6F8
:104280001060C4F230200068012809D1FFE79DF8D2
:104290000C00C006002803D5FFE703F0B9F8FFE7DC
:1042A000FFE740F69420C4F230200068012812D1C4
:1042B000FFE740F61460C4F230200068012809D1FD
:1042C000FFE79DF80C008006002803D5FFE703F008
:1042D000A1F8FFE7FFE740F69820C4F2302000681D
:1042E000012812D1FFE740F61860C4F230200068C0
:1042F000012809D1FFE79DF80C004006002803D5EE
:10430000FFE703F08BF8FFE7FFE740F69C20C4F2DD
:1043100030200068012812D1FFE740F61C60C4F28B
:1043200030200068012809D1FFE79DF80C00000645
:10433000002803D5FFE703F073F8FFE7FFE740F637
:10434000A020C4F230200068012811D1FFE740F618
:104350002060C4F230200068012808D1FFE79DF8F2
:104360000D00C00718B1FFE703F056F8FFE7FFE7BD
:1043700048F25400C4F20100006800F44030C00963
:10438000029048F27000C4F20100006800F4C060BE
:10439000019002980199084209D0FFE79DF80D00AD
:1043A0000007002803D5FFE703F03CF8FFE748F2D9
:1043B0005400C4F20100006800F44020C0090290DB
:1043C00048F27000C4F20100006800F4C05001908F
:1043D00002980199084209D0FFE79DF80D00C00638
:1043E000002803D5FFE703F01FF8FFE748F6802019
:1043F000C4F230200068012811D1FFE748F60060C0
:10440000C4F230200068012808D1FFE79DF80E00B3
:10441000C00718B1FFE703F009F8FFE7FFE748F628
:104420008420C4F230200068012812D1FFE748F64A
:104430000460C4F230200068012809D1FFE79DF82C
:104440000E008007002803D5FFE702F0F1FFFFE729
:10445000FFE748F68820C4F230200068012812D116
:10446000FFE748F60860C4F230200068012809D14F
:10447000FFE79DF80E004007002803D5FFE702F094
:10448000D9FFFFE7FFE748F68C20C4F23020006830
:10449000012812D1FFE748F60C60C4F23020006812
:1044A000012809D1FFE79DF80E000007002803D579
:1044B000FFE702F0C1FFFFE7FFE748F69020C4F2F4
:1044C00030200068012812D1FFE748F61060C4F2DE
:1044D00030200068012809D1FFE79DF80E00C006D2
:1044E000002803D5FFE702F0A9FFFFE7FFE748F642
:1044F0009420C4F230200068012812D1FFE748F66A
:104500001460C4F230200068012809D1FFE79DF84B
:104510000E008006002803D5FFE702F091FFFFE7B9
:10452000FFE748F69820C4F230200068012812D135
:10453000FFE748F61860C4F230200068012809D16E
:10454000FFE79DF80E004006002803D5FFE702F0C4
:104550007BFFFFE7FFE748F69C20C4F230200068AD
:10456000012812D1FFE748F61C60C4F23020006831
:10457000012809D1FFE79DF80E000006002803D5A9
:10458000FFE702F063FFFFE7FFE748F6A020C4F271
:1045900030200068012811D1FFE748F62060C4F2FE
:1045A00030200068012808D1FFE79DF80F00C00700
:1045B00018B1FFE702F046FFFFE7FFE748F254407B
:1045C000C4F20100006800F44030C009029048F2D3
:1045D0007040C4F20100006800F4C06001900298CD
:1045E0000199084209D0FFE79DF80F000007002855
:1045F00003D5FFE702F02CFFFFE748F25440C4F276
:104600000100006800F44020C009029048F27040A8
:10461000C4F20100006800F4C050019002980199B2
:10462000084209D0FFE79DF80F00C006002803D517
:10463000FFE702F00FFFFFE7BFF34F8F04B080BD2D
:1046400080B584B041F26C20C4F20500006803908C
:1046500040F68020C4F231200068012811D1FFE724
:1046600040F60060C4F231200068012808D1FFE75D
:104670009DF80C00C00718B1FFE702F0EDFEFFE760
:10468000FFE740F68420C4F231200068012812D1EF
:10469000FFE740F60460C4F231200068012809D128
:1046A000FFE79DF80C008007002803D5FFE702F024
:1046B000D5FEFFE7FFE740F68820C4F2312000680E
:1046C000012812D1FFE740F60860C4F231200068EB
:1046D000012809D1FFE79DF80C004007002803D509
:1046E000FFE702F0BDFEFFE7FFE740F68C20C4F2D3
:1046F00031200068012812D1FFE740F60C60C4F2B7
:1047000031200068012809D1FFE79DF80C0000075F
:10471000002803D5FFE702F0A5FEFFE7FFE740F61C
:104720009020C4F231200068012812D1FFE740F642
:104730001060C4F231200068012809D1FFE79DF81C
:104740000C00C006002803D5FFE702F08DFEFFE74E
:10475000FFE740F69420C4F231200068012812D10E
:10476000FFE740F61460C4F231200068012809D147
:10477000FFE79DF80C008006002803D5FFE702F054
:1047800075FEFFE7FFE740F69820C4F2312000688D
:10479000012812D1FFE740F61860C4F2312000680A
:1047A000012809D1FFE79DF80C004006002803D539
:1047B000FFE702F05FFEFFE7FFE740F69C20C4F250
:1047C00031200068012812D1FFE740F61C60C4F2D6
:1047D00031200068012809D1FFE79DF80C00000690
:1047E000002803D5FFE702F047FEFFE7FFE740F6AA
:1047F000A020C4F231200068012811D1FFE740F663
:104800002060C4F231200068012808D1FFE79DF83C
:104810000D00C00718B1FFE702F02AFEFFE7FFE72F
:1048200048F65400C4F20100006800F44030C009AA
:10483000029048F67000C4F20100006800F4C06005
:1048400001900298019908420CD0FFE79DF80D00F5
:1048500000F008010020B0EBD10F03D0FFE702F019
:104860000DFEFFE748F65400C4F20100006800F4B2
:104870004020C009029048F67000C4F201000068B0
:1048800000F4C05001900298019908420CD0FFE753
:104890009DF80D0000F010010020B0EB111F03D0B7
:1048A000FFE702F0EDFDFFE7BFF34F8F04B080BDDF
:1048B00080B584B041F27C20C4F20500006801900C
:1048C00041F23000C4F22A200068012811D1FFE72C
:1048D00041F23800C4F22A200068012808D1FFE71D
:1048E0009DF80400C00718B1FFE702F0CDFDFFE717
:1048F000FFE741F23400C4F22A200068012812D1F7
:10490000FFE741F23C00C4F22A200068012809D1E7
:10491000FFE79DF804008007002803D5FFE702F0B9
:10492000B5FDFFE7FFE745F29000C4F20100008803
:10493000039045F29C00C4F20100008802909DF8AB
:104940000C009DF80810084209D0FFE79DF804000C
:104950004007002803D5FFE702F094FDFFE749F286
:104960003000C4F22A200068012812D1FFE749F282
:104970003800C4F22A200068012809D1FFE79DF819
:1049800004000007002803D5FFE702F083FDFFE7DE
:10499000FFE749F23400C4F22A200068012812D14E
:1049A000FFE749F23C00C4F22A200068012809D13F
:1049B000FFE79DF80400C006002803D5FFE702F0DA
:1049C0006BFDFFE7FFE745F29040C4F2010000886D
:1049D000039045F29C40C4F20100008802909DF8CB
:1049E0000C009DF80810084209D0FFE79DF804006C
:1049F0008006002803D5FFE702F04AFDFFE741F2F9
:104A00003000C4F22B200068012812D1FFE741F2E8
:104A10003800C4F22B200068012809D1FFE79DF877
:104A200004004006002803D5FFE702F039FDFFE748
:104A3000FFE741F23400C4F22B200068012812D1B4
:104A4000FFE741F23C00C4F22B200068012809D1A5
:104A5000FFE79DF804000006002803D5FFE702F0F9
:104A600021FDFFE7FFE745F69000C4F20100008852
:104A7000039045F69C00C4F20100008802909DF866
:104A80000C009DF80810084208D0FFE79DF80500CB
:104A9000C00718B1FFE702F001FDFFE749F230005F
:104AA000C4F22B200068012812D1FFE749F2380038
:104AB000C4F22B200068012809D1FFE79DF805000A
:104AC0008007002803D5FFE702F0F0FCFFE7FFE7CF
:104AD00049F23400C4F22B200068012812D1FFE70C
:104AE00049F23C00C4F22B200068012809D1FFE7FD
:104AF0009DF805004007002803D5FFE702F0D8FC29
:104B0000FFE7FFE745F69040C4F2010000880390FC
:104B100045F69C40C4F20100008802909DF80C000C
:104B20009DF80810084209D0FFE79DF8050000072E
:104B3000002803D5FFE702F0B7FCFFE741F23000A1
:104B4000C4F22C200068012812D1FFE741F238009E
:104B5000C4F22C200068012809D1FFE79DF8050068
:104B6000C006002803D5FFE702F0A6FCFFE7FFE739
:104B700041F23400C4F22C200068012812D1FFE772
:104B800041F23C00C4F22C200068012809D1FFE763
:104B90009DF805008006002803D5FFE702F08EFC93
:104BA000FFE7FFE746F29000C4F20100008803909F
:104BB00046F29C00C4F20100008802909DF80C00AF
:104BC0009DF80810084209D0FFE79DF8050040064F
:104BD000002803D5FFE702F06DFCFFE749F2300043
:104BE000C4F22C200068012811D1FFE749F23800F7
:104BF000C4F22C200068012808D1FFE79DF80600C8
:104C0000C00718B1FFE702F05DFCFFE7FFE749F2DC
:104C10003400C4F22C200068012812D1FFE749F2C9
:104C20003C00C4F22C200068012809D1FFE79DF860
:104C300006008007002803D5FFE702F045FCFFE7E8
:104C4000FFE746F29040C4F201000088039046F26C
:104C50009C40C4F20100008802909DF80C009DF871
:104C60000810084209D0FFE79DF806004007002819
:104C700003D5FFE702F024FCFFE740F20010C4F286
:104C80008030006801281FD1FFE71820C4F20C0013
:104C900000684FF6FB41CFF27C710840039014206E
:104CA000C4F20C0000680840029003980299084280
:104CB00009D0FFE79DF806000007002803D5FFE7AD
:104CC00002F06EFFFFE7FFE74DF20000C4F20100C3
:104CD000006803904DF20C00C4F2010000680290DD
:104CE0009DF80800800600280FD5FFE79DF80C000E
:104CF00010F00B0F09D0FFE79DF8060040060028D2
:104D000003D5FFE702F024FFFFE70298039908406C
:104D10008006002809D5FFE79DF806000006002858
:104D200003D5FFE702F016FFFFE70298039908405A
:104D30000006002808D5FFE79DF80700C00718B156
:104D4000FFE702F00DFFFFE70298039908404006D5
:104D5000002809D5FFE79DF807008007002803D544
:104D6000FFE702F0FBFEFFE79DF808008007002840
:104D70000ED5FFE79DF80D00C00748B1FFE79DF88D
:104D800007004007002803D5FFE702F0E5FEFFE734
:104D90004DF20040C4F20100006803904DF20C4057
:104DA000C4F20100006802909DF808008006002807
:104DB0000FD5FFE79DF80C0010F00B0F09D0FFE7AF
:104DC0009DF807000007002803D5FFE702F0CAFEA0
:104DD000FFE70298039908408006002809D5FFE7FD
:104DE0009DF80700C006002803D5FFE702F0BCFECF
:104DF000FFE70298039908400006002809D5FFE75D
:104E00009DF807008006002803D5FFE702F0B2FEF8
:104E1000FFE70298039908404006002809D5FFE7FC
:104E20009DF807004006002803D5FFE702F0A0FE2A
:104E3000FFE79DF80800800700280ED5FFE79DF8E2
:104E40000D00C00748B1FFE79DF8070000060028E5
:104E500003D5FFE702F08AFEFFE7BFF34F8F04B0F0
:104E600080BD000080B584B041F28020C4F205000E
:104E70000068019041F20000C4F202000068039053
:104E800041F20C00C4F20200006802909DF8080094
:104E9000800600280ED5FFE79DF80C0010F00B0FE0
:104EA00008D0FFE79DF80400C00718B1FFE702F043
:104EB00063FEFFE70298039908408006002809D5A1
:104EC000FFE79DF804008007002803D5FFE702F004
:104ED00055FEFFE70298039908400006002809D50F
:104EE000FFE79DF804004007002803D5FFE702F024
:104EF0004BFEFFE70298039908404006002809D5B9
:104F0000FFE79DF804000007002803D5FFE702F043
:104F100039FEFFE79DF80800800700280ED5FFE75F
:104F20009DF80D00C00748B1FFE79DF80400C006DA
:104F3000002803D5FFE702F023FEFFE741F200401F
:104F4000C4F202000068039041F20C40C4F2020077
:104F5000006802909DF80800800600280FD5FFE742
:104F60009DF80C0010F00B0F09D0FFE79DF804002E
:104F70008006002803D5FFE702F008FEFFE702984D
:104F8000039908408006002809D5FFE79DF8040032
:104F90004006002803D5FFE702F0FAFDFFE702987C
:104FA000039908400006002809D5FFE79DF8040092
:104FB0000006002803D5FFE702F0F0FDFFE70298A6
:104FC000039908404006002808D5FFE79DF8050032
:104FD000C00718B1FFE702F0DFFDFFE79DF808000A
:104FE000800700280ED5FFE79DF80D00C00748B1E7
:104FF000FFE79DF805008007002803D5FFE702F0D2
:10500000C9FDFFE74CF20400C4F201000068039000
:105010004CF21400C4F20100006802909DF80D00EB
:10502000400700280FD5FFE79DF80800000600287C
:1050300009D5FFE79DF805000007002803D5FFE725
:1050400001F04AFBFFE79DF80D00800700280FD50F
:10505000FFE79DF808008006002809D5FFE79DF8C6
:105060000500C006002803D5FFE701F037FBFFE786
:105070009DF80D00000700280FD5FFE79DF80800F8
:105080008007002809D4FFE79DF805008006002866
:1050900003D5FFE701F01EFBFFE79DF80D00C007F9
:1050A00078B1FFE79DF8080010F01D0F09D0FFE769
:1050B0009DF805004006002803D5FFE701F008FB36
:1050C000FFE74CF20440C4F20100006803904CF288
:1050D0001440C4F20100006802909DF80D004007E2
:1050E00000280ED5FFE79DF808000006002808D527
:1050F000FFE79DF80600C00718B1FFE701F0F4FADA
:10510000FFE79DF80D00800700280FD5FFE79DF809
:1051100008008006002809D5FFE79DF806008007F3
:10512000002803D5FFE701F0E1FAFFE79DF80D0045
:10513000000700280FD5FFE79DF80800800700282A
:1051400009D4FFE79DF806004007002803D5FFE7D4
:1051500001F0C8FAFFE79DF80D00C00778B1FFE73E
:105160009DF8080010F01D0F09D0FFE79DF806001C
:105170000007002803D5FFE701F0B2FAFFE704209B
:10518000C4F20200006803901420C4F20200006818
:1051900002909DF80D00400700280FD5FFE79DF80D
:1051A00008000006002809D5FFE79DF806008006E4
:1051B000002803D5FFE701F09FFAFFE79DF80D00F7
:1051C000800700280FD5FFE79DF80800800600281B
:1051D00009D5FFE79DF806004006002803D5FFE744
:1051E00001F08CFAFFE79DF80D00000700280FD5AD
:1051F000FFE79DF808008007002809D4FFE79DF825
:1052000006000006002803D5FFE701F073FAFFE768
:105210009DF80D00C00770B1FFE79DF8080010F081
:105220001D0F08D0FFE79DF80700C00718B1FFE782
:1052300001F05EFAFFE740F20440C4F202000068A9
:10524000039040F21440C4F20200006802909DF8FE
:105250000D00400700280FD5FFE79DF80800000665
:10526000002809D5FFE79DF807004007002803D56F
:10527000FFE701F049FAFFE79DF80D0080070028DD
:105280000FD5FFE79DF808008006002809D5FFE745
:105290009DF807000007002803D5FFE701F036FA64
:1052A000FFE79DF80D00000700280FD5FFE79DF8E8
:1052B00008008007002809D4FFE79DF80700C00612
:1052C000002803D5FFE701F01DFAFFE79DF80D0068
:1052D000C00778B1FFE79DF8080010F01D0F09D056
:1052E000FFE79DF807008006002803D5FFE701F0DF
:1052F00007FAFFE7BFF34F8F04B080BD80B582B0DF
:1053000041F28420C4F205000068019047F21800C1
:10531000C4F20100008800909DF80400C00778B135
:10532000FFE79DF80000C006002809D5FFE79DF8BB
:1053300000004006002803D5FFE702F01FF8FFE752
:105340009DF80400800700280FD5FFE79DF80000B6
:105350008006002809D5FFE79DF800000006002818
:1053600003D5FFE702F00CF8FFE747F21C00C4F298
:105370000100008800909DF80400400700280FD528
:10538000FFE79DF80000C006002809D5FFE79DF85B
:1053900000004006002803D5FFE701F0F3FFFFE718
:1053A0009DF80400000700280FD5FFE79DF80000D6
:1053B0008006002809D5FFE79DF8000000060028B8
:1053C00003D5FFE701F0E0FFFFE747F22000C4F25A
:1053D0000100008800909DF80400C00600280FD549
:1053E000FFE79DF80000C006002809D5FFE79DF8FB
:1053F00000004006002803D5FFE701F0C7FFFFE7E4
:105400009DF80400800600280FD5FFE79DF80000F6
:105410008006002809D5FFE79DF800000006002857
:1054200003D5FFE701F0B4FFFFE747F24800C4F2FD
:105430000100008800909DF80400400600280ED569
:10544000FFE79DF80100C00748B1FFE79DF80100A4
:105450008007002803D5FFE701F09CFFFFE79DF8D8
:105460000400000600280FD5FFE79DF80100800624
:10547000002809D5FFE79DF801004006002803D564
:10548000FFE701F089FFFFE747F2A400C4F2010043
:10549000008800909DF80500C00770B1FFE79DF8F7
:1054A0000000C00748B9FFE79DF80000C0060028CB
:1054B00003D5FFE701F072FFFFE79DF805008007C5
:1054C00000280ED5FFE79DF800008007002808D4CB
:1054D000FFE79DF80100C00718B1FFE701F060FF8A
:1054E000FFE79DF80500400700280FD5FFE79DF86E
:1054F00000004007002809D4FFE79DF80100C0061E
:10550000002803D5FFE701F04DFFFFE744F6180040
:10551000C4F20200008800909DF80600C00778B130
:10552000FFE79DF80000C006002809D5FFE79DF8B9
:1055300000004006002803D5FFE701F01FFFFFE74A
:105540009DF80600800700280FD5FFE79DF80000B2
:105550008006002809D5FFE79DF800000006002816
:1055600003D5FFE701F00CFFFFE744F61C00C4F28F
:105570000200008800909DF80600400700280FD523
:10558000FFE79DF80000C006002809D5FFE79DF859
:1055900000004006002803D5FFE701F009FFFFE700
:1055A0009DF80600000700280FD5FFE79DF80000D2
:1055B0008006002809D5FFE79DF8000000060028B6
:1055C00003D5FFE701F0F6FEFFE744F62000C4F242
:1055D0000200008800909DF80600C00600280FD544
:1055E000FFE79DF80000C006002809D5FFE79DF8F9
:1055F00000004006002803D5FFE701F0DDFEFFE7CD
:105600009DF80600800600280FD5FFE79DF80000F2
:105610008006002809D5FFE79DF800000006002855
:1056200003D5FFE701F0CAFEFFE744F64800C4F2E5
:105630000200008800909DF80600400600280ED564
:10564000FFE79DF80100C00748B1FFE79DF80100A2
:105650008007002803D5FFE701F0B2FEFFE79DF8C1
:105660000600000600280FD5FFE79DF80100800620
:10567000002809D5FFE79DF801004006002803D562
:10568000FFE701F09FFEFFE744F6A400C4F202002A
:10569000008800909DF80700C00770B1FFE79DF8F3
:1056A0000000C00748B9FFE79DF80000C0060028C9
:1056B00003D5FFE701F088FEFFE79DF807008007AC
:1056C00000280ED5FFE79DF800008007002808D4C9
:1056D000FFE79DF80100C00718B1FFE701F076FE73
:1056E000FFE79DF80700400700280FD5FFE79DF86A
:1056F00000004007002809D4FFE79DF80100C0061C
:10570000002803D5FFE701F063FEFFE7BFF34F8FEB
:1057100002B080BD80B582B041F28820C4F205009D
:105720000068009044F61840C4F20200008801901E
:105730009DF80000C00778B1FFE79DF80400C0069F
:10574000002809D5FFE79DF804004006002803D58E
:10575000FFE701F03FFEFFE79DF80000800700280B
:105760000FD5FFE79DF804008006002809D5FFE764
:105770009DF804000006002803D5FFE701F02CFE89
:10578000FFE744F61C40C4F20200008801909DF837
:105790000000400700280FD5FFE79DF80400C00671
:1057A000002809D5FFE79DF804004006002803D52E
:1057B000FFE701F013FEFFE79DF800000007002857
:1057C0000FD5FFE79DF804008006002809D5FFE704
:1057D0009DF804000006002803D5FFE701F000FE55
:1057E000FFE744F62040C4F20200008801909DF8D3
:1057F0000000C00600280FD5FFE79DF80400C00692
:10580000002809D5FFE79DF804004006002803D5CD
:10581000FFE701F0E7FDFFE79DF8000080060028A4
:105820000FD5FFE79DF804008006002809D5FFE7A3
:105830009DF804000006002803D5FFE701F0D4FD21
:10584000FFE744F64840C4F20200008801909DF84A
:105850000000400600280ED5FFE79DF80500C007B0
:1058600048B1FFE79DF805008007002803D5FFE752
:1058700001F0BCFDFFE79DF80000000600280FD5F1
:10588000FFE79DF805008006002809D5FFE79DF891
:1058900005004006002803D5FFE701F0A9FDFFE75A
:1058A00044F6A440C4F20200008801909DF8010073
:1058B000C00770B1FFE79DF80400C00748B9FFE7D3
:1058C0009DF80400C006002803D5FFE701F066FD3F
:1058D000FFE79DF80100800700280ED5FFE79DF83F
:1058E00004008007002808D4FFE79DF80500C007E2
:1058F00018B1FFE701F080FDFFE79DF801004007C8
:1059000000280FD5FFE79DF804004007002809D4C0
:10591000FFE79DF80500C006002803D5FFE701F06A
:105920006DFDFFE7BFF34F8F02B080BD80B584B03F
:1059300041F28C20C4F205000068039047F60C4049
:10594000C4F20100006800F00F00029047F6144016
:10595000C4F20100006800F00F0001900298019964
:10596000084209D0FFE79DF80C004006002803D547
:10597000FFE7FCF763F8FFE747F62C40C4F20100AD
:10598000006800F00F00029047F63440C4F20100B6
:10599000006800F00F00019002980199084209D0B8
:1059A000FFE79DF80C000006002803D5FFE7FCF791
:1059B00047F8FFE747F64C40C4F20100006800F0EA
:1059C0000F00029047F65440C4F20100006800F056
:1059D0000F00019002980199084208D0FFE79DF856
:1059E0000D00C00718B1FFE7FCF72CF8FFE747F6FA
:1059F0006C40C4F20100006800F00F00029047F60E
:105A00007440C4F20100006800F00F000190029899
:105A10000199084209D0FFE79DF80D008007002892
:105A200003D5FFE7FCF710F8FFE70420C4F23C20A1
:105A30000068012810D1FFE78020C4F23C200068F4
:105A4000012808D1FFE79DF80E00C00718B1FFE755
:105A5000FCF7BAFFFFE7FFE70C20C4F23C20006828
:105A6000012811D1FFE78420C4F23C2000680128FE
:105A700009D1FFE79DF80E008007002803D5FFE756
:105A8000FCF7A0FFFFE7FFE71020C4F23C2000680E
:105A9000012812D1FFE74EF20800C4F201000068AD
:105AA000800748B1FFE79DF80E004007002803D5A6
:105AB000FFE7FCF785FFFFE7FFE748F20400C4F2C9
:105AC0003C200068012812D1FFE748F28000C4F2B0
:105AD0003C200068012809D1FFE79DF80E0000076F
