:020000040000FA
:10000000A81C00203D0300007503000077030000DA
:10001000790300007B0300007D0300000000000066
:10002000000000000000000000000000C1560000B9
:10003000810300000000000011560000E956000096
:100040000130000015300000293000003D30000074
:100050005130000065300000793000008D30000024
:10006000A1300000B5300000C9300000DD300000D4
:10007000F130000005310000193100002D31000081
:100080004131000055310000693100007D31000030
:1000900091310000A5310000B9310000CD310000E0
:1000A000E1310000F5310000093200001D3200008E
:1000B0003132000045320000593200006D3200003C
:1000C0008132000099320000B1320000C9320000D4
:1000D000E1320000F9320000113300002933000042
:1000E00041330000593300007133000089330000B0
:1000F000A1330000B9330000D1330000E933000020
:10010000013400001934000031340000493400008B
:10011000613400007934000091340000A9340000FB
:10012000C1340000D9340000F1340000093500006A
:1001300021350000393500005135000069350000D7
:100140008135000099350000B1350000C935000047
:10015000E1350000F93500001136000029360000B5
:100160004136000059360000713600008936000023
:10017000A1360000B9360000D1360000E936000093
:1001800001370000193700003137000049370000FF
:10019000613700007937000091370000A93700006F
:1001A000C1370000D9370000F137000009380000DE
:1001B000213800003938000051380000693800004B
:1001C0008138000099380000B1380000C9380000BB
:1001D000E1380000F9380000113900002939000029
:1001E0004139000059390000713900008939000097
:1001F000A1390000B9390000D1390000E939000007
:10020000013A0000193A0000313A0000493A000072
:10021000613A0000793A0000913A0000A93A0000E2
:10022000C13A0000D93A0000F13A0000093B000051
:10023000213B0000393B0000513B0000693B0000BE
:10024000813B00009D3C0000C54000009D41000036
:10025000ED430000870300008703000087030000D0
:100260002145000025480000E54A0000514D0000EE
:10027000914E000045500000595200009553000077
:1002800000F002F800F04BF80AA090E8000C82445D
:100290008344AAF10107DA4501D100F040F8AFF23A
:1002A000090EBAE80F0013F0010F18BFFB1A43F054
:1002B00001031847E0E7000000E80000103A24BFFF
:1002C00078C878C1FAD8520724BF30C830C144BFBB
:1002D00004680C60704700000023002400250026FD
:1002E000103A28BF78C1FBD8520728BF30C148BF99
:1002F0000B607047752900F08B81632900F08F83B4
:10030000002070471FB50EF040F99DE8030000F093
:10031000EDFA1FBD10B5002000F03EFC10BD00F04E
:1003200080FC1146FFF7EEFF09F076FF00F09EFC1F
:1003300003B4FFF7EFFF03BC00F0B8FA15484FF025
:100340001F01016014484FF07701016013484FF01E
:100350007701016012484FF4885101600E484FF058
:10036000760101600D484FF0760101600D4880472D
:100370000D480047FEE7FEE7FEE7FEE7FEE7FEE783
:10038000FEE7FEE7FEE7FEE708480949094A0A4B8F
:100390007047000010080540040805400C0805409F
:1003A00000080540B957000081020000A8DCFF1FCB
:1003B000A81C0020A8FCFF1FA8FCFF1F10B50020F0
:1003C00000F050FBFFF7A6FFBDE81040012000F051
:1003D0006DBA0B460146184600F02DBB02F0FF0334
:1003E00043EA032242EA024200F0D7B902F0FF03D7
:1003F00043EA032242EA024200F0F1B97047704733
:10040000BFFFDFFFFFFEFFFFFFFFFFFFFFFFFFFF5D
:10041000FFFFFFFFFFFFFFFFFFFFFFFFFFFFFFFFEC
:1004200070B5064600F048FA056806F10B0020F0AA
:100430000704B4429CBF002070BD2B466A68BAB165
:100440001068A04210D304F1080188423CBF5068F4
:10045000586007D35168101941601168091B016089
:1004600058601460101D70BD13465268002AE7D111
:100470002146284600F026FA0028DED170BD70B56E
:100480000446051F00F018FA0068002C14BF4468E9
:1004900070BD002C18BFAC423CBF20466468F8D346
:1004A00001680A18AA4218BF456003D12A680546A8
:1004B0001144016028684119A1421CBF6C6070BDE5
:1004C0006168696021680844286070BD53EA020CC5
:1004D00000F069802DE9F04B4FF00006002B1FBFA4
:1004E000B3FA83F503FA05F424FA05F65E4012BF69
:1004F0001643B2FA82F502FA05F4C5F120051EBFD3
:1005000022FA05FC44EA0C04203556EA044C4FEA72
:10051000144418BF641C4FF000084FF000099042CB
:1005200071EB030C39D3002919BFB1FA81F701FA35
:1005300007F6B0FA80F700FA07F6C7F120071EBFEA
:1005400020FA07FC46EA0C062037B6FBF4FCA7EBC2
:100550000507103F07F01F0BCBF120062CFA06F61B
:100560000CFA0BFB44BFB3460026202FA4BF5E4607
:100570004FF0000B5BEA060C08BF4FF0010B19EBC4
:100580000B0948EB0608ABFB027C06FB02CC0BFB1D
:1005900003CCC01B71EB0C01C1E70B460246414680
:1005A0004846BDE8F08B13B5084318BF4FF0FF3045
:1005B0000146AFF30080BDE81C40704770B50C46A3
:1005C0000546012A05D02878800600D5EA6900236F
:1005D00002E0012305E05B1C934202D2E05C0028AC
:1005E000F9D1A869E618C01AA861286A18442862D7
:1005F0002846AFF3008004E0D5E9012114F8010B8F
:100600009047B442F8D32846AFF3008070BD000095
:100610002DE9F0410646002410687529314616A5DB
:1006200010D0AFF30080002802DA404213A507E0A3
:1006300031688A0701D512A502E0490704D511A542
:10064000012401E0AFF3008000210A2206F1240713
:1006500009E0B0FBF2FCB0FBF2F302FB1C0030300F
:1006600078541846491C0028F3D123462A463046C0
:10067000BDE8F04100F070B9000000002D0000005E
:100680002B00000020000000032A40F2308010F010
:10069000030C00F0158011F8013BBCF1020F62441D
:1006A00098BF11F801CB00F8013B38BF11F8013BAE
:1006B000A2F1040298BF00F801CB38BF00F8013B5B
:1006C00011F0030300F0D581083AC0F0088051F81A
:1006D000043B083A51F804CBA0E80810F5E7121DD6
:1006E0005CBF51F8043B40F8043BAFF30080D207F5
:1006F00024BF11F8013B11F801CB48BF11F8012BC1
:1007000024BF00F8013B00F801CB48BF00F8012BE3
:100710007047431A28BF9A427FF6B6AF104411447F
:10072000032A40F2268010F0030F1EBF11F8013D8E
:10073000521E00F8013D10F0030F7FF4F6AF11F0E8
:10074000030300F0DB81083AC0F00B8051F8043D50
:10075000083A51F804CD40F8043D40F804CDFFF7C5
:10076000F3BF121D5CBF51F8043D40F8043DAFF3E8
:100770000080D20724BF11F8013D11F801CD48BF18
:1007800011F8012C24BF00F8013D00F801CD48BF4D
:1007900000F8012C70474FF000020429C0F01280CD
:1007A00010F0030C00F01B80CCF1040CBCF1020F24
:1007B00018BF00F8012BA8BF20F8022BA1EB0C01F9
:1007C00000F00DB85FEAC17C24BF00F8012B00F8EF
:1007D000012B48BF00F8012B70474FF0000200B515
:1007E000134694469646203922BFA0E80C50A0E854
:1007F0000C50B1F12001BFF4F7AF090728BFA0E802
:100800000C5048BF0CC05DF804EB890028BF40F8CD
:10081000042B08BF704748BF20F8022B11F0804F0F
:1008200018BF00F8012B704730B44FF0013C50F86E
:10083000042B51F8043BCCFA52F4D51A20D1FCB960
:1008400050F8042B51F8043BCCFA52F4D51A17D1C6
:10085000B4B950F8042B51F8043BCCFA52F4D51A31
:100860000ED16CB950F8042B51F8043BCCFA52F479
:10087000D51A05D1002CDAD030BC4FF000007047FB
:1008800029BAB1FA81F111F01801D1F120008440A8
:10089000F2D1CA40CB4012F0FF0213F0FF0330BC8C
:1008A000D01A704770477047704700000149182000
:1008B000ABBEFEE726000200004870475880FF1FCD
:1008C0007047704738B504460A4600206946AFF3C2
:1008D0000080002808BF38BD02460099204600F07D
:1008E00041F9012038BD012000F094B9F8B5AFF30B
:1008F0000080054600200C46102000BF0646A819BF
:10090000A0420DD9324669460020AFF300800700AF
:1009100008BF00F07FF90098A04218BF0546C4192F
:10092000FFF7CAFF05600746F01D20F007004619D3
:10093000284600F00AF8B44208BFF8BDA21B3146B1
:100940003868BDE8F84000F00DB900210160C0E949
:1009500001107047102070472DE9F0470D46994669
:100960009246044600F124080168880604D5E0692F
:1009700021F01001216000E00120A84201DD471BA9
:1009800000E00027A1697A1902EB0900081AA061AA
:100990002078C00602D42046AFF30080002608E08D
:1009A000D4E901211AF806009047206A401C761C01
:1009B00020624E45F4DB2078C0060AD52046AFF30E
:1009C000008006E0D4E9012130209047206A401CD5
:1009D0002062381EA7F10107F4DC07E0D4E9012109
:1009E00018F805009047206A401C2062281EA5F1D7
:1009F0000105F3DC2046AFF300802078000602D525
:100A00000220BDE8F0870120FBE710B5436913B170
:100A1000AFF3008001E0FFF7D1FD012010BD127897
:100A200000F124010A7000224A700122EDE71168EA
:100A30004FF0FF32E9E72DE9F041074615460E4633
:100A40001020FFF7EDFC04000AD06760C4E90265DE
:100A500000F084F80168216004600020BDE8F081A6
:100A60000120FBE710B500F0BDF8BDE8104000F034
:100A7000B4B810B5203AC0F00B80B1E81850A0E827
:100A80001850B1E81850A0E81850203ABFF4F5AF5C
:100A90005FEA027C24BFB1E81850A0E8185044BFB8
:100AA00018C918C0BDE810405FEA827C24BF51F825
:100AB000043B40F8043B08BF7047D20728BF31F819
:100AC000023B48BF11F8012B28BF20F8023B48BF6A
:100AD00000F8012B7047431A28BF9A427FF6C9AF2E
:100AE0001044114410F0030F1EBF11F8013D521EB7
:100AF00000F8013D10F0030F7FF4F6AF103AC0F09C
:100B00000A8010B531E9185020E91850103ABFF4A6
:100B1000F9AFBDE81040530724BF31E9081020E9C0
:100B2000081044BF51F8043D40F8043D12F0030F93
:100B300008BF7047D20728BF31F8023D48BF11F8FF
:100B4000012C28BF20F8023D48BF00F8012C704757
:100B5000004870475080FF1F7047000000487047F2
:100B60008880FF1F034640688C46002818BF8842D3
:100B70003CBF03464068F8D318681844884207D041
:100B80000CF1030020F00700001D411A521A014623
:100B9000081D0A60FFF773BC2DE9F0410646FFF718
:100BA000DDFF8046454613E016B1E068B0420ED145
:100BB00020682860D4E90101D8F8007088472046F1
:100BC000FFF75DFCD8F80000B842EBD100E0254605
:100BD0002C68002CE8D1BDE8F081002801D0FFF797
:100BE00065BE704710B5002102A000F048F8012052
:100BF00010BD0000534947414252543A2041626EB1
:100C00006F726D616C207465726D696E6174696F6D
:100C10006E00000010B500F04BF8BDE81040FFF783
:100C2000DCBF7546FFF794FFAE46050069465346A4
:100C300020F00700854618B020B5FFF7A5FBBDE8FA
:100C400020404FF000064FF000074FF000084FF033
:100C5000000BAC46ACE8C009ACE8C009ACE8C00980
:100C6000ACE8C00921F007018D46704710B5044675
:100C7000AFF300802046BDE81040FFF759BB70B5C8
:100C800005460C460A2000E06D1C00F039F835B12D
:100C900028780028F8D102E0641C00F031F814B183
:100CA00020780028F8D1BDE870400A2000F028B86C
:100CB00010B5012805D0002103A0FFF7E0FF0120B7
:100CC00010BD09A1F8E7000053494752544D454D66
:100CD0003A204F7574206F662068656170206D65DD
:100CE0006D6F7279000000003A2048656170206DD8
:100CF000656D6F727920636F7272757074656400D0
:100D000008B569468DF800000320ABBE08BD0000A1
:100D100070470000704700007047000070470000F7
:100D200070470000704700007047000070470000E7
:100D3000B0B504464FF2FC70CBF6FE702044682834
:100D40000D4607D814F0030004D1206865F30800AD
:100D50002060B0BD4EF66C00C0F200008F2100F0A4
:100D60004FFD206865F308002060B0BD10B545F266
:100D70000044C4F201042046402105F05BF801283C
:100D800018BF10BD2046402105F006F8EFF311848E
:100D90004FF0500080F31188BFF36F8FBFF34F8F78
:100DA000012008F027FD84F3118810BDF0B585B04F
:100DB000052003210122052601F0F6FA03AC2046A6
:100DC00000F0ECFC01AD284600F0A4FA47F2777081
:100DD00042F21021C0F27770C0F2110100F0A8FABF
:100DE0004FF440500027ADF80C0020468DF80E70EF
:100DF0008DF8106000F0F2FB43F20010C1F2101009
:100E0000029028468DF8047000F052F9202000F07E
:100E100031F80128FAD1502001F07CF94FF440401C
:100E200001F008FF04F0CAFB052000F079FB012067
:100E300001F048F9002001F045F9012001F020F906
:100E400005B0F0BD80B549F2F800C1F6FF70016849
:100E500041F40061016000BF0120022101F090FD1A
:100E60000028F9D00220BDE8804001F0F5B900006B
:100E70007047000010B5044610B114F0960007D07A
:100E80004EF69C00C0F2000040F28B5100F0B8FC1E
:100E900044F23C00C4F205000078204018BF012055
:100EA00010BD0000B0B50446022807D34EF69C00E2
:100EB000C0F2000040F2D92100F0A2FC44F2260565
:100EC000C4F20505B5F8D803C00707D14EF69C005B
:100ED000C0F2000040F2DA2100F092FC14B10020D0
:100EE0000DE000BF287800F00700022806D16FF05F
:100EF0000504A02000F0B4FC2046B0BD012044F25F
:100F00002741C4F2050100240870A02000F0A8FCCD
:100F10002046B0BDB0B584B00446022807D34EF6D3
:100F20009C00C0F2000040F2E54100F069FC44F290
:100F30003C05C4F20505B5F8C203C00707D14EF65B
:100F40009C00C0F2000040F2E64100F059FC9CB366
:100F5000D5F8C400000639D4002001900198B0F5FE
:100F6000805F61D8287800076AD401980130019029
:100F70000198B0F5805F57D82878000760D40198B1
:100F8000013001900198B0F5805F4DD828780007B6
:100F900056D40198013001900198B0F5805F43D894
:100FA000287800074CD40198013001900198B0F5E1
:100FB000805FD7D938E000BF15F8160C00F00700A5
:100FC000052837D16FF0050004B0B0BD00200290B5
:100FD0000298B0F5805F27D82878C00730D10298F2
:100FE000013002900298B0F5805F1DD82878C007C4
:100FF00026D10298013002900298B0F5805F13D894
:101000002878C0071CD10298013002900298B0F5F0
:10101000805F09D82878C00712D102980130029069
:101020000298B0F5805FD7D96FF0070058B104B0CF
:10103000B0BD00BF012005F8120C002004B0B0BD07
:1010400000200028F3D1002005F8120C039003982B
:10105000B0F5805F27D828788006EED40398013059
:1010600003900398B0F5805F1DD828788006E4D4FB
:101070000398013003900398B0F5805F13D8287867
:101080008006DAD40398013003900398B0F5805FAE
:1010900009D828788006D0D40398013003900398AB
:1010A000B0F5805FD7D96FF0070004B0B0BD000085
:1010B0002DE9F041002800F001810446007900F09C
:1010C0001800182807D14EF69C00C0F2000040F22C
:1010D000B94100F095FB254635F8050FA97840EA9F
:1010E000014001466FF35F211339B1F5E67F0BD95B
:1010F0004EF69C00C0F2000040F2BA4100F080FBC6
:10110000A878298841EA00400021B1EB105F0BD19B
:101110004EF69C00C0F2000040F2BB4100F070FBB4
:10112000A878298841EA004094F9041049F2FC02A9
:10113000C1F6FF72B1F1FF3F01F01F01126801F12A
:101140000101C4BF41F20022C0F27A02B2FBF1F108
:1011500043F20163A1F574226FF35F20A2F51072D0
:10116000C0F26E1301309A4201FB00F607D34EF62F
:101170009C00C0F200004FF4986100F041FB4EF279
:101180000040CFF2B11041F601413044C0F64E614B
:10119000884207D34EF69C00C0F2000040F2C141E5
:1011A00000F02EFBA8780122010402EB115141F658
:1011B0004068B6FBF1F1CFF61B784EF24107C0F65E
:1011C00006374144B9427DD2298841EA004010F4F3
:1011D000702F00F0878010F4704F0BD14EF69C00FA
:1011E000C0F2000040F2C44100F00AFBA878298850
:1011F00041EA0040C0F303310131B6FBF1F1414453
:10120000B9420BD34EF69C00C0F2000040F2C5413B
:1012100000F0F6FAA878298841EA0040C0F30340BC
:101220000130B6FBF0F04044B84207D34EF69C00C4
:10123000C0F2000040F2C64100F0E2FA2078022835
:1012400007D34EF69C00C0F200004FF4996100F005
:10125000D7FA44F20015C4F20505B5F8FE02C0073E
:1012600007D14EF69C00C0F2000040F2C94100F0E8
:10127000C7FA28682179C90961F3C7102860606836
:101280002860207800283FD0B5F8FE02C00707D1BB
:101290004EF69C00C0F2000040F2E64100F0B0FAC9
:1012A00015F8DA0C00F0070005280FBF6FF00500F5
:1012B000012005F8D60C0020BDE8F0816FF0020097
:1012C000BDE8F0814EF69C00C0F2000040F2C24141
:1012D00000F096FAA878298841EA004010F4702FAF
:1012E0007FF479AF4EF69C00C0F2000040F2C3419B
:1012F00000F086FAA878298841EA004010F4704F7F
:101300007FF478AF6AE700BF0120BDE8F041FFF746
:1013100001BE0000002804BF6FF00200704741F2D8
:101320000031C1F2101141600121017000207047AD
:10133000F0B585B048F20006C4F2040632680C46E7
:101340000492726805460392B1680291F06804F055
:10135000E061B1F1E06F01906AD004F07000702894
:1013600072D004F4E020B0F5E02F7BD004F4E0006C
:10137000B0F5E00F00F0848004F00700072800F0CB
:101380008C8004F4E060B0F5E06F00F0948004F429
:10139000E040B0F5E04F00F09C8047F27770C0F27B
:1013A0007770054200F0A48044F2FE30C4F20500DC
:1013B0000088C00707D14EF69C00C0F2000040F242
:1013C000A92100F01DFA44F22007C4F20507B879FC
:1013D00000F00700052840F095803069C00707D16C
:1013E0004EF69C00C0F200004FF42C7100F008FA99
:1013F0004FF6EE20CFF6FF7030604FF0FF30706098
:10140000B060F0601E2000F02BFA386804EA050195
:10141000A843084438601E2000F022FA0498306087
:10142000039870600298B0600198F06070E000BFAF
:101430004EF69C00C0F2000040F2A12100F0E0F95D
:1014400004F0700070288CD14EF69C00C0F20000B1
:1014500040F2A22100F0D4F904F4E020B0F5E02F2E
:101460007FF484AF4EF69C00C0F2000040F2A3214E
:1014700000F0C6F904F4E000B0F5E00F7FF47CAFB3
:101480004EF69C00C0F200004FF4297100F0B8F94C
:1014900004F0070007287FF474AF4EF69C00C0F2FA
:1014A000000040F2A52100F0ABF904F4E060B0F5D3
:1014B000E06F7FF46CAF4EF69C00C0F2000040F28B
:1014C000A62100F09DF904F4E040B0F5E04F7FF470
:1014D00064AF4EF69C00C0F2000040F2A72100F07D
:1014E0008FF947F27770C0F2777005427FF45CAFF6
:1014F0004EF69C00C0F200004FF42A7100F080F913
:1015000052E700BF386804EA0501A8430844386080
:101510001E2000F0A5F905B0BDE8F04004F0FCB8CD
:1015200070B584B048F20005C4F204052968044689
:1015300003916968062C0291A9680191E8680090FE
:1015400007D34EF69C00C0F2000040F2372100F0B5
:1015500057F944F22606C4F20506B6F8D803C007C8
:1015600007D14EF69C00C0F200004FF40E7100F05F
:1015700047F93078052C05D000F00700052801D088
:10158000347023E02869C00707D14EF69C00C0F2F2
:1015900000004FF4107100F033F94FF6EE20CFF653
:1015A000FF7028604FF0FF306860A860E8601E2080
:1015B00000F056F91E20347000F052F903982860AC
:1015C000029868600198A8600098E8601E2000F00A
:1015D00047F904B0BDE8704004F09EB8B0B582B0E1
:1015E00000285FD004460078022807D34EF69C00FE
:1015F000C0F200004FF45F7100F002F96078010161
:1016000041EA1010C0B2042850D2A07840F0400047
:10161000402858D1E07840F08000802860D12079BF
:101620000138092807D34EF69C00C0F200004FF4A1
:10163000607100F0E5F844F23C05C4F20505B5F828
:10164000C203C00707D14EF69C00C0F2000040F272
:10165000813100F0D5F8207985F866006178E2786C
:10166000A378114344F210421943C4F205022078D2
:101670001170B5F8C213002801F001003ED038B94E
:101680004EF69C00C0F2000040F29D3100F0B8F828
:1016900015F8160C00F0070003286DD16FF0050057
:1016A00002B0B0BD6FF0020002B0B0BD4EF69C00BB
:1016B000C0F2000040F27D3100F0A2F8A07840F0C6
:1016C00040004028A6D04EF69C00C0F2000040F238
:1016D0007E3100F095F8E07840F0800080289ED0C0
:1016E0004EF69C00C0F2000040F27F3100F088F816
:1016F00020790138092896D29DE700BF38B94EF607
:101700009C00C0F2000040F29D3100F079F800200A
:1017100005F80A0C01900198B0F5805F27D8287869
:10172000000735D40198013001900198B0F5805F31
:101730001DD8287800072BD401980130019001981A
:10174000B0F5805F13D82878000721D401980130C4
:1017500001900198B0F5805F09D82878000717D468
:101760000198013001900198B0F5805FD7D96FF0F2
:10177000070002B0B0BD00BFD5F8C400000604D415
:1017800015F8120C00283FF489AF012005F80A0C67
:10179000002002B0B0BD000070470000002804BF68
:1017A0006FF00200704701460120088000204FF4CE
:1017B000B0628870A1F803207047000010B544F2B1
:1017C0000044C4F2020420464FF4803104F082F851
:1017D000012818BF10BD20464FF4803104F04CF8AA
:1017E00048F29450C1F6FF7001680131016010BDEC
:1017F000704700007047000070470000704700000D
:10180000FEE7000083B0029049F20010C1F6FF70BD
:10181000006844F22001C4F205010968C1F30261C5
:10182000C84041F26F71084441F6F111C0F276519F
:10183000A0FB0101C8090090FFE70298411E029138
:1018400060B1FFE700980190FFE70198411E019108
:1018500010B1FFE7F9E700BFEFE700BF03B0704743
:1018600083B0029049F20010C1F6FF70006844F2A4
:101870002001C4F205010968C1F30261C84048F6BD
:101880007F51C0F25B01084449F68171C1F25E618B
:10189000A0FB0101C80C0090FFE70298411E0291D5
:1018A00060B1FFE700980190FFE70198411E0191A8
:1018B00010B1FFE7F9E700BFEFE700BF03B07047E3
:1018C000704700007047000070470000704700003C
:1018D000704700007047000070470000704700002C
:1018E000704700007047000070470000704700001C
:1018F000704700007047000070470000704700000C
:1019000070470000704700007047000070470000FB
:1019100070470000704700007047000070470000EB
:1019200070B5154643F20042044640F48060C4F2AC
:10193000050290420E4649D1042E51D2022D07D302
:101940004EF6CC00C0F2000040F27D11FFF758FFC8
:1019500048F29851C1F6FF71087800281CBF4FF07B
:10196000FF3070BD01200870E36900FA06FC6FEAE1
:101970000C0E13EA0E0F18D0E069002E18BF10F0FD
:10198000010039D1E069012E18BF10F0020051D1D9
:10199000E069022E18BF10F004006BD1E069032E3D
:1019A00018BF10F0080040F08980E0690CF00F03C8
:1019B0000EEA000202F00F02012D08BF40EA030206
:1019C0000020E26100220A7070BD00BF4EF6CC001C
:1019D000C0F2000040F27B11FFF712FF042EADD3DE
:1019E0004EF6CC00C0F200004FF4BE71FFF708FFC6
:1019F000022DADD3A4E700BFA06CA36E1B0C0A2B75
:101A0000C0D8000C8342BDD2002344F6FD70E269C9
:101A1000D207B7D0E269D2071CBFE2695FEAC2729F
:101A2000B0D0834203F10303F1D96FF00700002225
:101A30000A7070BDD4F88800D4F8A820130C0A2BC3
:101A4000A6D8000C8342A3D2002344F6FD70E269BD
:101A500092079DD5E269920744BFE2695FEA82720C
:101A600096D5834203F10303F1D96FF007000022FA
:101A70000A7070BDD4F8C800D4F8E820130C0A2B03
:101A80003FF68CAF000C8342BFF488AF002344F6CE
:101A9000FD70E26952077FF581AFE269520744BFEA
:101AA000E2695FEA42727FF579AF834203F1030393
:101AB000EFD96FF0070000220A7070BDD4F808015A
:101AC000D4F82821130C0A2B3FF66FAF000C834289
:101AD000BFF46BAF002344F6FD70E26912077FF597
:101AE00064AFE269120744BFE2695FEA02727FF500
:101AF0005CAF834203F10303EFD96FF007000022CC
:101B00000A7070BDB0B543F20042044640F48060F4
:101B1000C4F2050290420D4602D155B90EE000BF55
:101B20004EF6CC00C0F200004FF4B271FFF768FE31
:101B300025B125F00F1008B9A561B0BD4EF6CC0057
:101B4000C0F2000040F26511FFF75AFEA561B0BD7A
:101B5000B0B543F20042044640F48060C4F205028E
:101B600090420D4604D1022D0BD22560B0BD00BFBE
:101B70004EF6CC00C0F20000FB21FFF741FE022D23
:101B8000F3D34EF6CC00C0F20000FC21FFF738FE84
:101B90002560B0BDB0B543F20042044640F4806019
:101BA000C4F2050290420D4606D1042D0ED204EB7C
:101BB0008510806E000CB0BD4EF6CC00C0F2000067
:101BC00040F27251FFF71CFE042DF0D34EF6CC000C
:101BD000C0F2000040F27351FFF712FE04EB8510D3
:101BE000806E000CB0BD000070B5144643F2004298
:101BF000054640F48060C4F2050290420E460FD1C3
:101C0000042E17D204B3E068002844D0B0F5007F5A
:101C10001ED0B0F5807F1ED12079C0071BD12AE0ED
:101C20004EF6CC00C0F200004FF46B71FFF7E8FDF8
:101C3000042EE7D34EF6CC00C0F2000040F2AD31E6
:101C4000FFF7DEFD002CDED16FF0020070BD00BF9B
:101C50002079800714D04EF6CC00C0F2000040F28C
:101C6000B231FFF7CDFDE068A8B1B0F5007F07D035
:101C7000B0F5807F07D1207AC00704D10BE000BF08
:101C8000207A800707D04EF6CC00C0F2000040F268
:101C9000B331FFF7B5FDA069032807D34EF6CC009A
:101CA000C0F200004FF46D71FFF7AAFDE06908284B
:101CB0002ED8012101FA00F040F21111084227D07C
:101CC0002069B0F5806F2FD8206840F48050B0F5BF
:101CD000805F37D1606805EB86110864A0684864AE
:101CE000D4E904026FF39F2040EA02408864C86D83
:101CF0002368E668D4E9065433432B4341F20F329C
:101D0000234390431A401044C865002070BD00BFB3
:101D10004EF6CC00C0F2000040F2B531FFF770FD86
:101D20002069B0F5806FCFD94EF6CC00C0F200002C
:101D300040F2B631FFF764FD206840F48050B0F502
:101D4000805FC7D04EF6CC00C0F2000040F2B73141
:101D5000FFF756FDBEE7000070B5144643F200429F
:101D6000054640F48060C4F2050290420E465FD101
:101D7000042E07D34EF6CC00C0F2000040F206213C
:101D8000FFF73EFD05F14000B101445005F160024E
:101D90005358A34202D1002070BD00BF002344501D
:101DA0005658A642F7D044505658A642F3D0445055
:101DB0005658A642EFD044505658A642EBD0445055
:101DC0005658A642E7D044505658A642E3D0445055
:101DD0005658A642DFD044505658A642DBD0445055
:101DE0005658A642D7D044505658A642D3D0445055
:101DF0005658A642CFD044505658A642CBD0445055
:101E00005658A642C7D044505658A642C3D0445054
:101E10005658A642BFD044505658A642BBD01E09C1
:101E2000FE2E11D8445056581133A642B7D1B2E70E
:101E30004EF6CC00C0F2000040F20521FFF7E0FCB6
:101E4000042E97D29EE700BF6FF0070070BD000020
:101E500070B5144643F20042054640F48060C4F277
:101E6000050290420E4640F0AD80042E07D34EF698
:101E7000CC00C0F2000040F24121FFF7C1FC05F1A7
:101E80004800B1014258C2EA0442425005F16802DA
:101E90005358B4EB134F01D1002070BD230400262A
:101EA0004558ADB21D4345505558B4EB154FF3D0CE
:101EB0004558ADB21D4345505558B4EB154FEBD0C6
:101EC0004558ADB21D4345505558B4EB154FE3D0BE
:101ED0004558ADB21D4345505558B4EB154FDBD0B6
:101EE0004558ADB21D4345505558B4EB154FD3D0AE
:101EF0004558ADB21D4345505558B4EB154FCBD0A6
:101F00004558ADB21D4345505558B4EB154FC3D09D
:101F10004558ADB21D4345505558B4EB154FBBD095
:101F20004558ADB21D4345505558B4EB154FB3D08D
:101F30004558ADB21D4345505558B4EB154FABD085
:101F40004558ADB21D4345505558B4EB154FA3D07D
:101F50004558ADB21D4345505558B4EB154F9BD075
:101F60004558ADB21D4345505558B4EB154F93D06D
:101F70004558ADB21D4345505558B4EB154F3FF48D
:101F80008BAF4558ADB21D4345505558B4EB154F76
:101F90003FF482AF4558ADB21D4345505558B4EBA0
:101FA000154F3FF479AF3509FE2D17D84558113636
:101FB000ADB21D4345505558B4EB154F7FF470AF8B
:101FC0006AE700BF4EF6CC00C0F200004FF410717B
:101FD000FFF716FC042EBFF44AAF50E76FF007007E
:101FE00070BD0000002804BF6FF00200704701467A
:101FF00000200122C1E90000C1E90200C1E904207A
:10200000C1E906007047000070B5164643F2004271
:10201000044640F48060C4F2050290420D4601D1AE
:102020004DB913E04EF6CC00C0F2000040F2411171
:10203000FFF7E6FB55B125F00F1038B9022E0FD28D
:10204000D6B12069A843206170BD00BF4EF6CC0018
:10205000C0F200004FF4A171FFF7D2FB022EEFD3C4
:102060004EF6CC00C0F2000040F24311FFF7C8FB6F
:102070002069A843206170BD20692843206170BD9C
:1020800010B50446022807D34EF6FC00C0F200004B
:1020900040F27111FFF7B4FB40F20040C4F20100BE
:1020A0000068012807D04EF6FC00C0F200004FF493
:1020B000B971FFF7A5FB48F24010C4F2202004607C
:1020C00010BD000010B50446022807D34EF6FC00F0
:1020D000C0F2000040F26311FFF792FB40F20040B3
:1020E000C4F201000068012807D04EF6FC00C0F2DF
:1020F00000004FF4B271FFF783FB48F26010C4F2A6
:102100002020046010BD00007047000070470000F0
:1021100070470000F0B581B040F20847C4F20107F3
:1021200057F8081C0446012907D04EF6FC00C0F2FF
:10213000000040F24F11FFF763FBF12C07D34EF67E
:10214000FC00C0F200004FF4A871FFF759FB39689A
:10215000220962F30711396049F20011C1F6FF71DB
:1021600044F22000096841F25972C4F205000023CC
:10217000CDF2B7123D6805F0F005A54240D00568E4
:10218000C5F3026521FA05F5A5FB0256B3EB963FB0
:1021900031D23E6806F0F006A64231D0066801331F
:1021A000C6F3026621FA06F6A6FB0265B3EB953F7D
:1021B00021D23E6806F0F006A64221D0066801331F
:1021C000C6F3026621FA06F6A6FB0265B3EB953F5D
:1021D00011D23E6806F0F006A64211D00668C6F39A
:1021E000026621FA06F6A6FB02655E1CB6EB953F79
:1021F00003F10203BED36FF0070001B0F0BD00BFD2
:10220000002001B0F0BD00007047000070470000E2
:1022100070470000704700007047000070470000E2
:1022200070470000704700007047000070470000D2
:1022300070470000704700007047000070470000C2
:1022400070470000704700007047000070470000B2
:10225000704700007047000010B5044601384FF683
:10226000FF71884207D34EF68D10C0F2000040F295
:102270000F21FFF7C5FA41F25800C4F205000460CF
:1022800010BD000070B504460D4628B143F6EE209F
:10229000C7F20C00204006D04EF62C10C0F2000011
:1022A0007121FFF7ADFA022D06D34EF62C10C0F2C5
:1022B00000007221FFF7A4FA48F20006C4F20406F7
:1022C0003069C00706D14EF62C10C0F20000732111
:1022D000FFF796FA3068012D14BF2043A043306009
:1022E00070BD000070B504460D4688B140F28620EE
:1022F000CFF2F00020400BD148F20406022DC4F2C8
:10230000040612D2012D17D13068A043306070BD91
:102310004EF62C10C0F200008421FFF771FA48F24B
:102320000406022DC4F20406ECD34EF62C10C0F2C3
:1023300000008521FFF764FA30682043306070BDEB
:1023400070B504460D4688B147F60000CFF6F87028
:1023500020400BD148F20806022DC4F2040612D226
:10236000012D17D13068A043306070BD4EF62C109F
:10237000C0F200009621FFF743FA48F20806022D4A
:10238000C4F20406ECD34EF62C10C0F200009721E4
:10239000FFF736FA30682043306070BD70470000A8
:1023A0007047000070470000F0B581B043F6044765
:1023B000C4F20507154637F8082C0C46D107064627
:1023C00000F0B080062E80F0B880002C00F0C080B5
:1023D000B001391F012D04F0010240F0C3801AB191
:1023E000425A42F400424252022CC0F04981A107F5
:1023F00003D5C15B41F40041C153042CC0F04081BE
:10240000610704D539188A8842F400428A80082C72
:10241000C0F03681210704D539180A8942F40042F8
:102420000A81102CC0F02C81E10604D539188A8964
:1024300042F400428A81202CC0F02281A10604D5FA
:1024400039180A8A42F400420A82402CC0F01881EE
:10245000610604D539188A8A42F400428A82802CA7
:10246000C0F00E81210604D539180A8B42F40042CF
:102470000A83B4F5807FC0F00381E10504D53918E3
:102480008A8B42F400428A83B4F5007FC0F0F88062
:10249000A10504D539180A8C42F400420A84B4F527
:1024A000806FC0F0ED80610504D539188A8C42F444
:1024B00000428A84B4F5006FC0F0E280210504D5A3
:1024C00039180A8D42F400420A85B4F5805FC0F0E5
:1024D000D780E10404D539188A8D42F400428A85F8
:1024E000B4F5005FC0F0CC80A10404D539180A8E81
:1024F00042F400420A86B4F5804FC0F0C180610406
:1025000004D539188A8E42F400428A8621B2B1F18C
:10251000FF3F00F3B5803844018F41F4004101874B
:10252000AEE000BF4EF65C10C0F2000040F2812128
:10253000FFF766F9062EFFF448AF4EF65C10C0F2C6
:10254000000040F28221FFF75BF9002C7FF440AFDE
:102550004EF65C10C0F2000040F28321FFF750F904
:1025600036E700BF1AB10A5A6FF3DF320A52022C63
:10257000C0F08680A10703D5C15B6FF3DF31C15383
:10258000042C7DD3610704D539188A886FF3DF32B4
:102590008A80082C74D3210704D539180A896FF36F
:1025A000DF320A81102C6BD3E10604D539188A89F1
:1025B0006FF3DF328A81202C62D3A10604D539184B
:1025C0000A8A6FF3DF320A82402C59D3610604D5A0
:1025D00039188A8A6FF3DF328A82802C50D3210621
:1025E00004D539180A8B6FF3DF320A83B4F5807F84
:1025F00046D3E10504D539188A8B6FF3DF328A831D
:10260000B4F5007F3CD3A10504D539180A8C6FF3CB
:10261000DF320A84B4F5806F32D3610504D53918EE
:102620008A8C6FF3DF328A84B4F5006F28D32105DA
:1026300004D539180A8D6FF3DF320A85B4F5805F4F
:102640001ED3E10404D539188A8D6FF3DF328A85F1
:10265000B4F5005F14D3A10404D539180A8E6FF3C2
:10266000DF320A86B4F5804F0AD3610404D53918E5
:102670008A8E6FF3DF328A8621B2B1F1FF3F01DD2E
:1026800001B0F0BD3844018F6FF3DF31018701B035
:10269000F0BD0000F0B581B0002A00F0D58043F60F
:1026A000FC37C4F205070646388814460D46C007B5
:1026B00000F0CE80062E80F0D680002D00F0DE8067
:1026C0002088022880F0E680608840F0020002281E
:1026D00040F0EE80A08840F00400042840F0F6802E
:1026E000E088002818BF102840F0FA80208940F4C4
:1026F0008040B0F5804F40F0FF80608940F040009E
:10270000402840F00781A08940F40070B0F5007FB8
:1027100040F00F81E08940F48050B0F5805F40F0D8
:102720001781208A40F40040B0F5004F40F01F812F
:1027300007EB861000F110010C2242F6885C4DF286
:10274000772700BFE80718D020886688E3883043E1
:10275000A688304318436389A6891843E389304328
:1027600026891843238A304331F80C6C184306EA53
:102770000C033840184421F80C0C022D60D3A80734
:1027800018D520886388E6881843A388184363898E
:102790003043A6891843E389304326891843238AA6
:1027A000304331F8086C184306EA0C0338401844EB
:1027B00021F8080C042D43D3680718D520886388B6
:1027C000E6881843A388184363893043A6891843D1
:1027D000E389304326891843238A304331F8046C57
:1027E000184306EA0C033840184421F8040C082D5D
:1027F00026D3280716D520886388E6881843A3883F
:10280000184363893043A6891843E38930432689F6
:102810001843238A30430E88184306EA0C033840D5
:1028200018440880102D4FF0000007D32D09002A0E
:10283000A2F1040201F110017FF484AF01B0F0BDF8
:10284000002001B0F0BD00BF6FF0020001B0F0BD8C
:102850004EF65C10C0F200004FF48071FEF7D0FF1E
:10286000062EFFF42AAF4EF65C10C0F2000040F2D4
:102870000111FEF7C5FF002D7FF422AF4EF65C106C
:10288000C0F200004FF48171FEF7BAFF20880228E1
:10289000FFF41AAF4EF65C10C0F2000040F20311D4
:1028A000FEF7AEFF608840F0020002283FF412AF4E
:1028B0004EF65C10C0F200004FF48271FEF7A0FFEC
:1028C000A08840F0040004283FF40AAF4EF65C10E4
:1028D000C0F2000040F20511FEF792FF00E700BFD2
:1028E00020283FF403AF4EF65C10C0F200004FF416
:1028F0008371FEF785FFF9E64EF65C10C0F200002A
:1029000040F20711FEF77CFF608940F0400040284C
:102910003FF4F9AE4EF65C10C0F200004FF4847143
:10292000FEF76EFFA08940F40070B0F5007F3FF421
:10293000F1AE4EF65C10C0F2000040F20911FEF755
:102940005FFFE08940F48050B0F5805F3FF4E9AE6E
:102950004EF65C10C0F200004FF48571FEF750FF98
:10296000208A40F40040B0F5004F3FF4E1AE4EF64F
:102970005C10C0F2000040F20B11FEF741FFD7E6F9
:10298000B0B5054606280C4607D34EF65C10C0F2DB
:1029900000004FF4FF71FEF733FF3CB94EF65C10B8
:1029A000C0F2000040F2FF11FEF72AFF43F60001DB
:1029B0002801C4F20501085A204018BF0120B0BD0B
:1029C000B0B5054606280C4607D34EF65C10C0F29B
:1029D000000040F24A21FEF713FF3CB94EF65C10AE
:1029E000C0F2000040F24B21FEF70AFF43F60A0155
:1029F0002801C4F205010A5A22430A52B0BD000060
:102A0000F0B581B01546064606280C4604D26CB1D6
:102A1000102D15D220E000BF4EF65C10C0F2000071
:102A20004FF4BE71FEF7ECFE002CF1D14EF65C10B7
:102A3000C0F2000040F27D11FEF7E2FE102D0BD334
:102A4000A5F120001C2807D34EF65C10C0F2000050
:102A50004FF4BF71FEF7D4FE43F6FC37C4F205070E
:102A60003888C0070AD0E0074FEA861105F03F001A
:102A700012D1022C18D201B0F0BD00BF4EF65C108E
:102A8000C0F2000040F27F11FEF7BAFEE0074FEA05
:102A9000861105F03F00ECD07A18D38823F03F036D
:102AA0000344D380022CE6D3A20705D57A185389B4
:102AB00023F03F0303445381042CDCD3620705D584
:102AC0007A18D38923F03F030344D381082CD2D34F
:102AD000220705D57A18538A23F03F030344538213
:102AE000102CC8D3E20605D57A18D38A23F03F0309
:102AF0000344D382202CBED3A20605D57A18538B6B
:102B000023F03F0303445383402CB4D3620605D51E
:102B10007A18D38B23F03F030344D383802CAAD3AA
:102B2000220605D57A18538C23F03F0303445384BF
:102B3000B4F5807F9FD3E20505D57A18D38C23F0B6
:102B40003F030344D384B4F5007F94D3A20505D595
:102B50007A18538D23F03F0303445385B4F5806FF7
:102B6000FFF489AF620505D57A18D38D23F03F03B2
:102B70000344D385B4F5006FFFF47DAF220505D57E
:102B80007A18538E23F03F0303445386B4F5805FD5
:102B9000FFF471AFE20405D57A18D38E23F03F031A
:102BA0000344D386B4F5005FFFF465AFA20405D5F6
:102BB0007A18538F23F03F0303445387B4F5804FB3
:102BC000FFF459AF620405D57A18D38F23F03F0381
:102BD0000344D38722B2B2F1FF3F3FF74CAF3944F1
:102BE000B1F8422022F03F021044A1F8420001B0A7
:102BF000F0BD0000B0B5054606280C4607D34EF6DA
:102C00005C10C0F200004FF40E71FEF7F9FD3CB904
:102C10004EF65C10C0F2000040F23921FEF7F0FDE4
:102C200043F608012801C4F205010A5A22430A5258
:102C3000B0BD0000B0B50446800407D04EF65C106D
:102C4000C0F200004FF4ED71FEF7DAFD43F6F835FF
:102C5000C4F20505A888C00707D14EF65C10C0F283
:102C6000000040F2DB11FEF7CBFD288804F4404160
:102C70006FF39F3008442880B0BD0000002804BFD7
:102C80006FF002007047014600200882C86088602B
:102C90004860086070470000B0B5054606280C463D
:102CA00007D34EF65C10C0F2000040F26D21FEF733
:102CB000A7FD3CB94EF65C10C0F2000040F26E2158
:102CC000FEF79EFD43F60C012801C4F205010A5AE5
:102CD00022430A52B0BD000048F21001C1F6FF7154
:102CE0000A78002A08BF7047896809B1084700BF01
:102CF0007047000010B548F21004C1F6FF74207848
:102D000010B1002040B210BD606828B1804701209A
:102D10002070002040B210BDFF2040B210BD000066
:102D200080B582B049F6917049F6757149F68D7299
:102D3000C0F20000C0F20001C0F2000200F072F820
:102D400049F6F17049F6E57149F6D972C0F2000012
:102D5000C0F20001C0F2000200F078F84AF2010C63
:102D60004AF209004AF20D0149F6FD724AF20503E2
:102D7000C0F2000CC0F20000C0F20001C0F200027C
:102D8000C0F20003CDF800C000F074F84AF215005C
:102D90004AF21101C0F20000C0F2000100F08AF80E
:102DA00049F65570C0F2000000F030F802B0BDE8FE
:102DB0008040FFF79FBF000048F21001C1F6FF718D
:102DC0000A781AB1896909B1084700BF4FF0FF308E
:102DD0007047000048F21001C1F6FF710A781AB17D
:102DE000496909B1084700BF4FF0FF307047000044
:102DF00048F21001C1F6FF710A781AB1096909B1E8
:102E0000084700BF4FF0FF307047000000280FBF99
:102E1000FC2048F21001C1F6FF71886318BF002042
:102E200040B2704700284FF0FC0318BF002901D1C1
:102E300058B27047002AFBD048F21003C1F6FF7366
:102E4000043307C3002358B27047000000284FF036
:102E5000FC0318BF002901D158B27047002AFBD0EB
:102E600048F21003C1F6FF73103307C3002358B2B2
:102E70007047000080B500284FF0FC0C18BF0029F7
:102E800002D14FFA8CF080BD002AFAD0002BF8D086
:102E9000DDF808E0BEF1000FF3D048F2100CC1F6E7
:102EA000FF7C0CF11C0C8CE80F404FF0000C4FFA2B
:102EB0008CF080BD00284FF0FC0218BF002901D122
:102EC00050B2704748F21002C1F6FF72C2E90C011D
:102ED000002250B27047000048F21001C1F6FF71A5
:102EE0000A781AB1096B09B1084700BF4FF0FF30EB
:102EF00070470000704700007047000070470000F6
:102F000070470000704700007047000070470000E5
:102F100070470000704700007047000070470000D5
:102F200070470000704700007047000070470000C5
:102F300070470000704700007047000070470000B5
:102F400070470000704700007047000070470000A5
:102F500070470000B0B568B3B0F800C00446BCF5D7
:102F6000007F08D34EF68D10C0F20000CD21FEF791
:102F700047FCB4F800C04FEA5C1101EB4103B4F820
:102F800002E003F1100148000FFA8EF188424FF081
:102F900000004FF025054FF0000288BF012005EB2F
:102FA00043038B4238BF01221043012806D1BEF1F2
:102FB0001F0F03D96FF00200B0BD00BF41F25C02E9
:102FC000C4F2050252F8210040F2FF136FF35F20B4
:102FD000984203D142F821C009E000BF52F8210015
:102FE0006FF35F2060451CBF6FF00100B0BD6068EB
:102FF00048F6F862C1F6FF7242F821000020B0BD29
:1030000080B548F6F860C1F6FF7000688047BFF3EE
:103010004F8F80BD80B548F6F860C1F6FF704068FC
:103020008047BFF34F8F80BD80B548F6F860C1F68A
:10303000FF7080688047BFF34F8F80BD80B548F632
:10304000F860C1F6FF70C0688047BFF34F8F80BD46
:1030500080B548F6F860C1F6FF7000698047BFF39D
:103060004F8F80BD80B548F6F860C1F6FF704069AB
:103070008047BFF34F8F80BD80B548F6F860C1F63A
:10308000FF7080698047BFF34F8F80BD80B548F6E1
:10309000F860C1F6FF70C0698047BFF34F8F80BDF5
:1030A00080B548F6F860C1F6FF70006A8047BFF34C
:1030B0004F8F80BD80B548F6F860C1F6FF70406A5A
:1030C0008047BFF34F8F80BD80B548F6F860C1F6EA
:1030D000FF70806A8047BFF34F8F80BD80B548F690
:1030E000F860C1F6FF70C06A8047BFF34F8F80BDA4
:1030F00080B548F6F860C1F6FF70006B8047BFF3FB
:103100004F8F80BD80B548F6F860C1F6FF70406B08
:103110008047BFF34F8F80BD80B548F6F860C1F699
:10312000FF70806B8047BFF34F8F80BD80B548F63E
:10313000F860C1F6FF70C06B8047BFF34F8F80BD52
:1031400080B548F6F860C1F6FF70006C8047BFF3A9
:103150004F8F80BD80B548F6F860C1F6FF70406CB7
:103160008047BFF34F8F80BD80B548F6F860C1F649
:10317000FF70806C8047BFF34F8F80BD80B548F6ED
:10318000F860C1F6FF70C06C8047BFF34F8F80BD01
:1031900080B548F6F860C1F6FF70006D8047BFF358
:1031A0004F8F80BD80B548F6F860C1F6FF70406D66
:1031B0008047BFF34F8F80BD80B548F6F860C1F6F9
:1031C000FF70806D8047BFF34F8F80BD80B548F69C
:1031D000F860C1F6FF70C06D8047BFF34F8F80BDB0
:1031E00080B548F6F860C1F6FF70006E8047BFF307
:1031F0004F8F80BD80B548F6F860C1F6FF70406E15
:103200008047BFF34F8F80BD80B548F6F860C1F6A8
:10321000FF70806E8047BFF34F8F80BD80B548F64A
:10322000F860C1F6FF70C06E8047BFF34F8F80BD5E
:1032300080B548F6F860C1F6FF70006F8047BFF3B5
:103240004F8F80BD80B548F6F860C1F6FF70406FC3
:103250008047BFF34F8F80BD80B548F6F860C1F658
:10326000FF70806F8047BFF34F8F80BD80B548F6F9
:10327000F860C1F6FF70C06F8047BFF34F8F80BD0D
:1032800080B548F6F860C1F6FF70D0F8800080473E
:10329000BFF34F8F80BD000080B548F6F860C1F6DF
:1032A000FF70D0F884008047BFF34F8F80BD0000CF
:1032B00080B548F6F860C1F6FF70D0F88800804706
:1032C000BFF34F8F80BD000080B548F6F860C1F6AF
:1032D000FF70D0F88C008047BFF34F8F80BD000097
:1032E00080B548F6F860C1F6FF70D0F890008047CE
:1032F000BFF34F8F80BD000080B548F6F860C1F67F
:10330000FF70D0F894008047BFF34F8F80BD00005E
:1033100080B548F6F860C1F6FF70D0F89800804795
:10332000BFF34F8F80BD000080B548F6F860C1F64E
:10333000FF70D0F89C008047BFF34F8F80BD000026
:1033400080B548F6F860C1F6FF70D0F8A00080475D
:10335000BFF34F8F80BD000080B548F6F860C1F61E
:10336000FF70D0F8A4008047BFF34F8F80BD0000EE
:1033700080B548F6F860C1F6FF70D0F8A800804725
:10338000BFF34F8F80BD000080B548F6F860C1F6EE
:10339000FF70D0F8AC008047BFF34F8F80BD0000B6
:1033A00080B548F6F860C1F6FF70D0F8B0008047ED
:1033B000BFF34F8F80BD000080B548F6F860C1F6BE
:1033C000FF70D0F8B4008047BFF34F8F80BD00007E
:1033D00080B548F6F860C1F6FF70D0F8B8008047B5
:1033E000BFF34F8F80BD000080B548F6F860C1F68E
:1033F000FF70D0F8BC008047BFF34F8F80BD000046
:1034000080B548F6F860C1F6FF70D0F8C00080477C
:10341000BFF34F8F80BD000080B548F6F860C1F65D
:10342000FF70D0F8C4008047BFF34F8F80BD00000D
:1034300080B548F6F860C1F6FF70D0F8C800804744
:10344000BFF34F8F80BD000080B548F6F860C1F62D
:10345000FF70D0F8CC008047BFF34F8F80BD0000D5
:1034600080B548F6F860C1F6FF70D0F8D00080470C
:10347000BFF34F8F80BD000080B548F6F860C1F6FD
:10348000FF70D0F8D4008047BFF34F8F80BD00009D
:1034900080B548F6F860C1F6FF70D0F8D8008047D4
:1034A000BFF34F8F80BD000080B548F6F860C1F6CD
:1034B000FF70D0F8DC008047BFF34F8F80BD000065
:1034C00080B548F6F860C1F6FF70D0F8E00080479C
:1034D000BFF34F8F80BD000080B548F6F860C1F69D
:1034E000FF70D0F8E4008047BFF34F8F80BD00002D
:1034F00080B548F6F860C1F6FF70D0F8E800804764
:10350000BFF34F8F80BD000080B548F6F860C1F66C
:10351000FF70D0F8EC008047BFF34F8F80BD0000F4
:1035200080B548F6F860C1F6FF70D0F8F00080472B
:10353000BFF34F8F80BD000080B548F6F860C1F63C
:10354000FF70D0F8F4008047BFF34F8F80BD0000BC
:1035500080B548F6F860C1F6FF70D0F8F8008047F3
:10356000BFF34F8F80BD000080B548F6F860C1F60C
:10357000FF70D0F8FC008047BFF34F8F80BD000084
:1035800080B548F6F860C1F6FF70D0F800018047BA
:10359000BFF34F8F80BD000080B548F6F860C1F6DC
:1035A000FF70D0F804018047BFF34F8F80BD00004B
:1035B00080B548F6F860C1F6FF70D0F80801804782
:1035C000BFF34F8F80BD000080B548F6F860C1F6AC
:1035D000FF70D0F80C018047BFF34F8F80BD000013
:1035E00080B548F6F860C1F6FF70D0F8100180474A
:1035F000BFF34F8F80BD000080B548F6F860C1F67C
:10360000FF70D0F814018047BFF34F8F80BD0000DA
:1036100080B548F6F860C1F6FF70D0F81801804711
:10362000BFF34F8F80BD000080B548F6F860C1F64B
:10363000FF70D0F81C018047BFF34F8F80BD0000A2
:1036400080B548F6F860C1F6FF70D0F820018047D9
:10365000BFF34F8F80BD000080B548F6F860C1F61B
:10366000FF70D0F824018047BFF34F8F80BD00006A
:1036700080B548F6F860C1F6FF70D0F828018047A1
:10368000BFF34F8F80BD000080B548F6F860C1F6EB
:10369000FF70D0F82C018047BFF34F8F80BD000032
:1036A00080B548F6F860C1F6FF70D0F83001804769
:1036B000BFF34F8F80BD000080B548F6F860C1F6BB
:1036C000FF70D0F834018047BFF34F8F80BD0000FA
:1036D00080B548F6F860C1F6FF70D0F83801804731
:1036E000BFF34F8F80BD000080B548F6F860C1F68B
:1036F000FF70D0F83C018047BFF34F8F80BD0000C2
:1037000080B548F6F860C1F6FF70D0F840018047F8
:10371000BFF34F8F80BD000080B548F6F860C1F65A
:10372000FF70D0F844018047BFF34F8F80BD000089
:1037300080B548F6F860C1F6FF70D0F848018047C0
:10374000BFF34F8F80BD000080B548F6F860C1F62A
:10375000FF70D0F84C018047BFF34F8F80BD000051
:1037600080B548F6F860C1F6FF70D0F85001804788
:10377000BFF34F8F80BD000080B548F6F860C1F6FA
:10378000FF70D0F854018047BFF34F8F80BD000019
:1037900080B548F6F860C1F6FF70D0F85801804750
:1037A000BFF34F8F80BD000080B548F6F860C1F6CA
:1037B000FF70D0F85C018047BFF34F8F80BD0000E1
:1037C00080B548F6F860C1F6FF70D0F86001804718
:1037D000BFF34F8F80BD000080B548F6F860C1F69A
:1037E000FF70D0F864018047BFF34F8F80BD0000A9
:1037F00080B548F6F860C1F6FF70D0F868018047E0
:10380000BFF34F8F80BD000080B548F6F860C1F669
:10381000FF70D0F86C018047BFF34F8F80BD000070
:1038200080B548F6F860C1F6FF70D0F870018047A7
:10383000BFF34F8F80BD000080B548F6F860C1F639
:10384000FF70D0F874018047BFF34F8F80BD000038
:1038500080B548F6F860C1F6FF70D0F8780180476F
:10386000BFF34F8F80BD000080B548F6F860C1F609
:10387000FF70D0F87C018047BFF34F8F80BD000000
:1038800080B548F6F860C1F6FF70D0F88001804737
:10389000BFF34F8F80BD000080B548F6F860C1F6D9
:1038A000FF70D0F884018047BFF34F8F80BD0000C8
:1038B00080B548F6F860C1F6FF70D0F888018047FF
:1038C000BFF34F8F80BD000080B548F6F860C1F6A9
:1038D000FF70D0F88C018047BFF34F8F80BD000090
:1038E00080B548F6F860C1F6FF70D0F890018047C7
:1038F000BFF34F8F80BD000080B548F6F860C1F679
:10390000FF70D0F894018047BFF34F8F80BD000057
:1039100080B548F6F860C1F6FF70D0F8980180478E
:10392000BFF34F8F80BD000080B548F6F860C1F648
:10393000FF70D0F89C018047BFF34F8F80BD00001F
:1039400080B548F6F860C1F6FF70D0F8A001804756
:10395000BFF34F8F80BD000080B548F6F860C1F618
:10396000FF70D0F8A4018047BFF34F8F80BD0000E7
:1039700080B548F6F860C1F6FF70D0F8A80180471E
:10398000BFF34F8F80BD000080B548F6F860C1F6E8
:10399000FF70D0F8AC018047BFF34F8F80BD0000AF
:1039A00080B548F6F860C1F6FF70D0F8B0018047E6
:1039B000BFF34F8F80BD000080B548F6F860C1F6B8
:1039C000FF70D0F8B4018047BFF34F8F80BD000077
:1039D00080B548F6F860C1F6FF70D0F8B8018047AE
:1039E000BFF34F8F80BD000080B548F6F860C1F688
:1039F000FF70D0F8BC018047BFF34F8F80BD00003F
:103A000080B548F6F860C1F6FF70D0F8C001804775
:103A1000BFF34F8F80BD000080B548F6F860C1F657
:103A2000FF70D0F8C4018047BFF34F8F80BD000006
:103A300080B548F6F860C1F6FF70D0F8C80180473D
:103A4000BFF34F8F80BD000080B548F6F860C1F627
:103A5000FF70D0F8CC018047BFF34F8F80BD0000CE
:103A600080B548F6F860C1F6FF70D0F8D001804705
:103A7000BFF34F8F80BD000080B548F6F860C1F6F7
:103A8000FF70D0F8D4018047BFF34F8F80BD000096
:103A900080B548F6F860C1F6FF70D0F8D8018047CD
:103AA000BFF34F8F80BD000080B548F6F860C1F6C7
:103AB000FF70D0F8DC018047BFF34F8F80BD00005E
:103AC00080B548F6F860C1F6FF70D0F8E001804795
:103AD000BFF34F8F80BD000080B548F6F860C1F697
:103AE000FF70D0F8E4018047BFF34F8F80BD000026
:103AF00080B548F6F860C1F6FF70D0F8E80180475D
:103B0000BFF34F8F80BD000080B548F6F860C1F666
:103B1000FF70D0F8EC018047BFF34F8F80BD0000ED
:103B200080B548F6F860C1F6FF70D0F8F001804724
:103B3000BFF34F8F80BD000080B548F6F860C1F636
:103B4000FF70D0F8F4018047BFF34F8F80BD0000B5
:103B500080B548F6F860C1F6FF70D0F8F8018047EC
:103B6000BFF34F8F80BD000080B548F6F860C1F606
:103B7000FF70D0F8FC018047BFF34F8F80BD00007D
:103B8000B0B540F6802541F25C20C4F2A225C4F213
:103B9000050004682868012804D114F0010001D050
:103BA000FEF73AFB6868012804D114F0020001D046
:103BB000FEF734FBA868012804D114F0040001D0FA
:103BC000FEF72EFBE868012804D114F0080001D0AC
:103BD000FEF728FB2869012804D114F0100001D059
:103BE000FEF722FB6869012804D114F0200001D0FF
:103BF000FEF71CFBA869012804D114F0400001D095
:103C0000FEF716FBE869012804D114F0800001D00A
:103C1000FEF710FB286A012804D114F4807001D04B
:103C2000FEF70AFB686A012804D114F4007001D081
:103C3000FEF704FBA86A012804D114F4806001D0C7
:103C4000FEF7FEFAE86A012804D114F4006001D0FE
:103C5000FEF7F8FA286B012804D114F4805001D043
:103C6000FEF7F2FA686B012804D114F4005001D079
:103C7000FEF7ECFAA86B012804D114F4804001D0BF
:103C8000FEF7E6FAE86B012804D114F4004001D0F5
:103C9000FEF7E0FABFF34F8FB0BD00002DE9F0430F
:103CA00081B040F2441641F26020C4F2A626C4F26C
:103CB00005000468D6F86C0A43F204090128C4F22E
:103CC000050924D1D6F8BC0040B956F8440C0128A7
:103CD00004D114F0010001D0FDF702FED6F8FC007B
:103CE00040B956F8040C012804D114F4807001D0B6
:103CF000FDF7E6FDD9F80000D9F80810884310F068
:103D0000011F18BF14F4803001D0FDF7E1FD41F22E
:103D1000B037C4F2A6273868012821D1D6F8C000F0
:103D200040B956F8400C012804D114F0020001D02B
:103D3000FDF7D8FDD6F8000138B93068012804D164
:103D400014F4007001D0FDF7BDFDD9F80000D9F8DA
:103D50000810884310F0021F18BF14F4803029D1D6
:103D6000D7F8000801282BD1D6F8C40040B956F87E
:103D70003C0C012804D114F0040001D0FDF7B4FD7F
:103D8000D6F8040138B97068012804D114F48060B1
:103D900001D0FDF799FDD9F80000D9F80810884343
:103DA00010F0041F18BF14F4803009D0FDF794FD03
:103DB00006E000BFFDF78EFDD7F800080128D3D03C
:103DC00042F2B030C4F2A6200068012823D1D6F810
:103DD000C80040B956F8380C012804D114F0080086
:103DE00001D0FDF783FDD6F8080138B9B068012885
:103DF00004D114F4006001D0FDF768FDD9F800008B
:103E0000D9F80810884310F0081F18BF14F4803048
:103E100001D0FDF763FD48F20017C4F2A627D7F8DA
:103E2000B00A43F20C480128C4F2050822D1D7F8A1
:103E3000000138B93868012804D114F0100001D00D
:103E4000FDF766FDD7F8400138B9386C012804D178
:103E500014F4805001D0FDF74BFDD9F80004D8F8D8
:103E60000010884310F0011F18BF14F4003001D077
:103E7000FDF746FD49F2B035C4F2A62528680128B1
:103E800020D1D7F8040138B97868012804D114F09A
:103E9000200001D0FDF73EFDD7F8440138B9306865
:103EA000012804D114F4005001D0FDF723FDD9F806
:103EB0000004D8F80010884310F0021F18BF14F453
:103EC000003027D1D5F80008012829D1D7F80801FA
:103ED00038B9B868012804D114F0400001D0FDF7CA
:103EE0001BFDD7F8480138B97068012804D114F4D3
:103EF000804001D0FDF700FDD9F80004D8F800108B
:103F0000884310F0041F18BF14F4003008D0FDF7E8
:103F1000FBFC05E0FDF7F6FCD5F800080128D5D03C
:103F20004AF2B030C4F2A6200068012822D1D7F8A6
:103F30000C0138B9F868012804D114F0800001D0D0
:103F4000FDF7ECFCD7F84C0138B9B068012804D172
:103F500014F4004001D0FDF7D1FCD9F80004D8F8E2
:103F60000010884310F0081F18BF14F4003001D06F
:103F7000FDF7CCFC48F21025C4F22025D5F8F0005E
:103F8000012809D140F21040C4F201000068000786
:103F900018BF14F480200DD1D5F8F80001280FD1F6
:103FA000686801280CD114F4002009D0FEF7ACF8A1
:103FB00006E000BFFEF7ACF8D5F8F8000128EFD016
:103FC000D5F8F400012807D12868012804D114F499
:103FD000801001D0FEF79AF80C20C9F60040006866
:103FE000000604D514F4800001D001F043FB7C20CE
:103FF000C4F2A420006801280DD142F20400C4F2EA
:104000000500416900680840400618BF14F400002C
:1040100001D0FDF7EDFB48F27C00C4F2A42000685B
:10402000012812D142F2184042F20401C4F2050004
:10403000C4F205010068D1F800140840400618BF1A
:1040400014F0807001D0FDF7D5FB7C20C4F2A520D0
:10405000006801280FD142F21840C4F20500D0F8E0
:104060000014D0F8EC030840400618BF14F00070AC
:1040700001D0FDF7C1FB48F27C00C4F2A520006826
:10408000012811D14FF614404FF60041CFF6FF70D2
:10409000CFF6FF7159F8000059F8011008404006AA
:1040A00018BF14F0806005D1BFF34F8F01B0BDE899
:1040B000F08300BFFDF7A2FBBFF34F8F01B0BDE857
:1040C000F0830000B0B540F2082541F26420C4F24C
:1040D0004825C4F2050004682868012807D1A86FA4
:1040E000012804D114F0010001D001F0BDFB286CBF
:1040F000012808D1D5F8B800012804D114F0020035
:1041000001D001F0B3FB48F20825C4F24825286825
:10411000012807D1A86F012804D114F0040001D0B0
:1041200001F0A6FB286C012808D1D5F8B8000128B9
:1041300004D114F0080001D001F09CFB44F24000CF
:10414000C4F205000178C90707D04078C00718BF3E
:1041500014F4001001D0FDF71FFB4CF20040C4F234
:1041600004000088C00404D514F4800001D001F0DC
:1041700047FA49F20440C4F20400006810F4403FDA
:1041800018BF14F4000003D1BFF34F8FB0BD00BFC0
:1041900001F0A8FABFF34F8FB0BD000070B540F634
:1041A000802541F26820C4F23025C4F2050004687D
:1041B0002868012808D1D5F88003012804D114F01B
:1041C000010001D001F082FD6868012808D1D5F80E
:1041D0008403012804D114F0020001D001F078FD1D
:1041E000A868012808D1D5F88803012804D114F063
:1041F000040001D001F06EFDE868012808D1D5F86F
:104200008C03012804D114F0080001D001F064FDF2
:104210002869012808D1D5F89003012804D114F0A9
:10422000100001D001F05AFD6869012808D1D5F8C5
:104230009403012804D114F0200001D001F050FDB6
:10424000A869012808D1D5F89803012804D114F0F1
:10425000400001D001F048FDE869012808D1D5F8F7
:104260009C03012804D114F0800001D001F03EFD30
:10427000286A012808D1D5F8A003012804D114F434
:10428000807001D001F02EFD48F25405C4F2010502
:104290002868E96901EAD01010F4C06F18BF14F45F
:1042A000006001D001F024FD2868E96901EAD0101E
:1042B00010F4C05F18BF14F4805001D001F01AFD53
:1042C00048F68026C4F230263068012808D1D6F896
:1042D0008003012804D114F4803001D001F00CFDDA
:1042E0007068012808D1D6F88403012804D114F499
:1042F000003001D001F002FDB068012808D1D6F8E5
:104300008803012804D114F4802001D001F0F8FCC6
:10431000F068012808D1D6F88C03012804D114F4E0
:10432000002001D001F0EEFC3069012808D1D6F858
:104330009003012804D114F4801001D001F0E4FCB2
:104340007069012808D1D6F89403012804D114F427
:10435000001001D001F0DAFCB069012808D1D6F8CC
:104360009803012804D114F4800001D001F0D2FC9C
:10437000F069012808D1D6F89C03012804D114F46F
:10438000000001D001F0C8FC306A012808D1D6F83D
:10439000A003012804D114F0807001D001F0B8FC12
:1043A00048F27046C4F20106D5F80004316801EA0B
:1043B000D01010F4C06F18BF14F0006001D001F0ED
:1043C000ADFCD5F80004316801EAD01010F4C05FEC
:1043D00018BF14F0805003D1BFF34F8F70BD00BFE2
:1043E00001F09EFCBFF34F8F70BD0000B0B540F6EA
:1043F000802541F26C20C4F23125C4F20500046826
:104400002868012808D1D5F88003012804D114F0C8
:10441000010001D001F086FC6868012808D1D5F8B8
:104420008403012804D114F0020001D001F07CFCC7
:10443000A868012808D1D5F88803012804D114F010
:10444000040001D001F072FCE868012808D1D5F819
:104450008C03012804D114F0080001D001F068FC9D
:104460002869012808D1D5F89003012804D114F057
:10447000100001D001F05EFC6869012808D1D5F870
:104480009403012804D114F0200001D001F054FC61
:10449000A869012808D1D5F89803012804D114F09F
:1044A000400001D001F04CFCE869012808D1D5F8A2
:1044B0009C03012804D114F0800001D001F042FCDB
:1044C000286A012808D1D5F8A003012804D114F4E2
:1044D000807001D001F032FC48F65405C4F20105A9
:1044E0002868E96901EAD01010F4C06F18BF14F40D
:1044F000006001D001F028FC2868E96901EAD010C9
:1045000010F4C05F18BF14F4805003D1BFF34F8F75
:10451000B0BD00BF01F01AFCBFF34F8FB0BD00006B
:104520002DE9F04141F2300541F27C20C4F22A2508
:10453000C4F2050004682868012807D1A86801288A
:1045400004D114F0010001D001F004FC68680128D6
:1045500007D1E868012804D114F0020001D001F06D
:10456000FBFB45F29005C4F201052888A9890840A3
:10457000000618BF14F0040001D001F0E9FB49F275
:104580003006C4F22A263068012807D1B068012815
:1045900004D114F0080001D001F0E2FB706801289A
:1045A00007D1F068012804D114F0100001D001F007
:1045B000D9FB45F29C46C4F20106B5F800043188E7
:1045C0000840000618BF14F0200001D001F0C6FB1F
:1045D00041F23005C4F22B252868012807D1A868CC
:1045E000012804D114F0400001D001F0BFFB68683D
:1045F000012807D1E868012804D114F0800001D017
:1046000001F0B6FBB6F8F403B6F800140840000653
:1046100018BF14F4807001D001F0A6FB49F23005F8
:10462000C4F22B252868012807D1A868012804D1E5
:1046300014F4007001D001F09FFB6868012807D1D5
:10464000E868012804D114F4806001D001F096FBE1
:1046500045F69045C4F201052888A989084000065E
:1046600018BF14F4006001D001F084FB41F2300661
:10467000C4F22C263068012807D1B068012804D183
:1046800014F4805001D001F07DFB7068012807D13F
:10469000F068012804D114F4005001D001F074FB3B
:1046A00046F29C06C4F20106B5F8000431880840C1
:1046B000000618BF14F4804001D001F061FB49F2FC
:1046C0003005C4F22C252868012807D1A8680128E4
:1046D00004D114F4803001D001F05AFB686801283D
:1046E00007D1E868012804D114F4003001D001F0AA
:1046F00051FBB6F8F403B6F800140840000618BFE2
:1047000014F4802001D001F041FB40F20010C4F20B
:1047100080300068012810D11420C4F20C004168D8
:10472000006808404FF6FB41CFF27C71084218BF89
:1047300014F4002001D002F0B9FD4DF20008C4F2DB
:104740000108D8F80060D8F80C70B80605D516F046
:104750000B0018BF14F4800004D107EA0605A80670
:1047600006D40AE002F004F807EA0605A80604D514
:1047700014F4000001D001F0FDFF280604D514F068
:10478000807001D002F078F8680604D514F000704B
:1047900001D002F06FF8B80707D516F4807018BF83
:1047A00014F0806001D001F0E7FF4DF20C40C4F23C
:1047B0000100D8F800540668B00605D515F00B00C6
:1047C00018BF14F0006005D106EA0507B80607D443
:1047D0000BE000BF02F052F806EA0507B80604D560
:1047E00014F0805001D002F04BF8380604D514F0D4
:1047F000005001D002F04AF8780604D514F0804049
:1048000001D002F041F8B00707D515F4807004D04C
:10481000B4F1FF3F01DC02F035F8BFF34F8FBDE884
:10482000F08100002DE9F04141F2000841F28020C2
:10483000C4F20208C4F205000468D8F80060D8F891
:104840000C70B80605D516F00B0018BF14F0010067
:1048500004D107EA0605A80606D40AE002F018F813
:1048600007EA0605A80604D514F0020001D002F0FC
:1048700011F8280604D514F0040001D002F010F855
:10488000680604D514F0080001D002F007F8B80754
:1048900007D516F4807018BF14F0100001D001F095
:1048A000FBFF41F20C40C4F20200D8F80054066845
:1048B000B00605D515F00B0018BF14F0200005D187
:1048C00006EA0507B80607D40BE000BF01F0EAFFCF
:1048D00006EA0507B80604D514F0400001D001F03F
:1048E000E3FF380604D514F0800001D001F0E2FFA8
:1048F000780604D514F4807001D001F0D9FFB00718
:1049000007D515F4807018BF14F4007001D001F0C1
:10491000CDFF4CF20405C4F201052F682E6978051D
:1049200005D516F0800018BF14F4006002D1B80558
:1049300004D409E000F0A8FEB80505D516F0200063
:1049400018BF14F4805003D1380505D40CE000BF23
:1049500000F09CFE380507D516F0020004D114F4CF
:10496000005001D000F08EFEF80505D516F01D00B0
:1049700018BF14F4804007D1D5F80064D5F810545E
:10498000700509D40EE000BF00F07AFED5F800648F
:10499000D5F81054700505D515F0800018BF14F433
:1049A000803003D1B00505D40AE000BF00F074FEEA
:1049B000B00505D515F0200018BF14F4003003D160
:1049C000300505D40CE000BF00F068FE300507D5C7
:1049D00015F0020004D114F4802001D000F05AFE3A
:1049E000F00507D515F01D0018BF14F4002001D004
:1049F00000F04EFE0425C4F202052F682E697805EA
:104A000005D516F0800018BF14F4001002D1B805C7
:104A100004D409E000F048FEB80505D516F02000E2
:104A200018BF14F4800003D1380505D40CE000BF92
:104A300000F03CFE380507D516F0020004D114F44E
:104A4000000001D000F02EFEF80505D516F01D007F
:104A500018BF14F0807007D1D5F80064D5F8105451
:104A6000700509D40EE000BF00F01AFED5F800640E
:104A7000D5F81054700505D515F0800018BF14F056
:104A8000806003D1B00505D40AE000BF00F014FE39
:104A9000B00505D515F0200018BF14F0006003D153
:104AA000300505D40CE000BF00F008FE300507D546
:104AB00015F0020004D114F0805001D000F0FAFD8E
:104AC000F00505D515F01D0018BF14F0005003D1F6
:104AD000BFF34F8FBDE8F08100F0EAFDBFF34F8FC9
:104AE000BDE8F08170B541F2842047F21805C4F2A8
:104AF0000500C4F2010504682E88E00705D016F011
:104B0000100018BF16F0400002D1A00704D409E03D
:104B100001F09AF8A00705D516F0200018BF16F08E
:104B2000800003D1AE88600705D40AE001F08EF85A
:104B3000AE88600705D516F0100018BF16F04000CB
:104B400002D1200704D409E001F082F8200705D53E
:104B500016F0200018BF16F0800003D12E89E00661
:104B600005D40AE001F076F82E89E00605D516F0A6
:104B7000100018BF16F0400002D1A00604D409E0CE
:104B800001F06AF8A00605D516F0200018BF16F04F
:104B9000800003D12E8E600605D40AE001F05EF895
:104BA0002E8E600605D516F4807018BF16F40070BE
:104BB00002D1200604D409E001F052F8200605D500
:104BC00016F4005018BF16F4804005D1B5F88C508B
:104BD000E00507D40EE000BF01F044F8B5F88C50B2
:104BE000E00507D515F0010004D115F0100001D043
:104BF00001F03AF8A00507D515F0020004D115F42C
:104C0000807001D001F032F8600507D515F004007E
:104C100004D115F4805001D001F02AF844F61805AB
:104C2000C4F202052E88E00305D516F0100018BF67
:104C300016F0400002D1A00304D409E001F004F80A
:104C4000A00305D516F0200018BF16F0800003D190
:104C5000AE88600305D40AE000F0F8FFAE88600378
:104C600005D516F0100018BF16F0400002D1200341
:104C700004D409E001F002F8200305D516F0200065
:104C800018BF16F0800003D12E89E00205D40AE097
:104C900000F0F6FF2E89E00205D516F0100018BFCF
:104CA00016F0400002D1A00204D409E000F0EAFFAF
:104CB000A00205D516F0200018BF16F0800003D121
:104CC0002E8E600205D40AE000F0DEFF2E8E600218
:104CD00005D516F4807018BF16F4007002D12002BA
:104CE00004D409E000F0D2FF200205D516F40050EC
:104CF00018BF16F4804005D1B5F88C50E00107D4F8
:104D00000EE000BF00F0C4FFB5F88C50E00107D5FD
:104D100015F0010004D115F0100001D000F0BAFF29
:104D2000A00107D515F0020004D115F4807001D060
:104D300000F0B2FF600107D515F0040004D115F4AE
:104D4000805001D000F0AAFFBFF34F8F70BD00006C
:104D500070B541F2882044F61845C4F20500C4F24B
:104D6000020504682E88E00705D016F0100018BF71
:104D700016F0400002D1A00704D409E000F090FF33
:104D8000A00705D516F0200018BF16F0800003D14B
:104D9000AE88600705D40AE000F084FFAE886007A3
:104DA00005D516F0100018BF16F0400002D12007FC
:104DB00004D409E000F078FF200705D516F02000A4
:104DC00018BF16F0800003D12E89E00605D40AE052
:104DD00000F06CFF2E89E00605D516F0100018BF14
:104DE00016F0400002D1A00604D409E000F060FFF4
:104DF000A00605D516F0200018BF16F0800003D1DC
:104E00002E8E600605D40AE000F054FF2E8E600658
:104E100005D516F4807018BF16F4007002D1200674
:104E200004D409E000F048FF200605D516F4005030
:104E300018BF16F4804005D1B5F88C50E00507D4B2
:104E40000EE000BF00F03AFFB5F88C50E00507D542
:104E500015F0010004D115F0100001D000F004FF9E
:104E6000A00507D515F0020004D115F4807001D01B
:104E700000F028FF600507D515F0040004D115F4F3
:104E8000805001D000F020FFBFF34F8F70BD0000B5
:104E900070B547F60C4541F28C20C4F20105C4F20E
:104EA000050004682868A9680840000718BF14F0C6
:104EB000400001D0FDF7A8F9286AA96A0840000758
:104EC00018BF14F0800001D0FDF7A0F9286CA96C80
:104ED0000840000718BF14F4807001D0FDF798F95E
:104EE000286EA96E0840000718BF14F4007001D0A6
:104EF000FDF790F90425C4F23C252868012807D164
:104F0000E86F012804D114F4803001D0FEF70EF8C8
:104F1000A868012808D1D5F88000012804D114F42C
:104F2000003001D0FEF700F8E8684EF208050128CD
:104F3000C4F2010507D12868800718BF14F4802047
:104F400001D0FDF7EFFF48F20406C4F23C263068BA
:104F5000012807D1F06F012804D114F4002001D0FA
:104F6000FDF7EAFFB068012808D1D6F880000128D3
:104F700004D114F4801001D0FDF7DCFFF0680128A3
:104F800008D1D5F80004800718BF14F4001001D030
:104F9000FDF7CEFF0425C4F244252868012807D177
:104FA000E86F012804D114F4800001D0FDF7CAFF96
:104FB000A868012808D1D5F88000012804D114F48C
:104FC000000001D0FDF7BCFFE86842F208050128A7
:104FD000C4F2020507D12868800718BF14F080705A
:104FE00001D0FDF7ABFF48F20406C4F24426306856
:104FF000012807D1F06F012804D114F0007001D00E
:10500000FDF7A6FFB068012808D1D6F88000012876
:1050100004D114F0806001D0FDF798FFF0680128FA
:1050200006D1D5F80004800718BF14F0006003D142
:10503000BFF34F8F70BD00BFFDF786FFBFF34F8FEB
:1050400070BD0000F0B581B08C2541F29020C4F213
:105050009C25C4F205000468E868012808D1D5F849
:105060000C03012804D114F0100001D0FDF744FF17
:105070002869012808D1D5F81003012804D114F0BB
:10508000200001D0FDF73CFF2868012808D1D5F8A1
:105090000003012804D114F0400001D0FDF72EFFD9
:1050A0004EF20405C4F204052868A96945F21726E2
:1050B000C0F2F0060840304218BF14F0800001D062
:1050C000FDF718FF48F28C07C4F29C27F868012806
:1050D00008D1D7F80C03012804D114F4807001D052
:1050E000FDF712FF3869012808D1D7F8100301280D
:1050F00004D114F4007001D0FDF70AFF38680128CC
:1051000008D1D7F80003012804D114F4806001D03D
:10511000FDF7FCFED5F80004D5F81814304008421D
:1051200018BF14F4006001D0FDF7ECFE8C27C4F228
:105130009D27F868012808D1D7F80C03012804D16D
:1051400014F4805001D0FDF7E7FE3869012808D13A
:10515000D7F81003012804D114F4005001D0FDF752
:10516000DFFE3868012808D1D7F80003012804D1F0
:1051700014F4804001D0FDF7D1FE4EF61C01D5F8A5
:105180000008C4F2040109683040084218BF14F452
:10519000004001D0FDF7BEFE44F21345C4F2050500
:1051A000287844F2E10600F003000128C4F2050665
:1051B00007D13078800704D514F4003001D000F016
:1051C0001BFA287800F03000102807D130788006CC
:1051D00004D514F4802001D000F010FA48F2003514
:1051E000C4F290252868012808D1D5F8800001284C
:1051F00004D114F4801001D0FDF7D2F868680128BA
:1052000008D1D5F88400012804D114F4001001D08D
:10521000FDF7C4F8A868012808D1D5F8880001284E
:1052200004D114F4800001D0FDF7BCF849F2040069
:10523000C4F20400006810F4403F18BF14F40000EA
:1052400004D1BFF34F8F01B0F0BD00BF02F030F8C2
:10525000BFF34F8F01B0F0BD2DE9F04F81B041F2A7
:10526000204541F294204FF2C04BC4F28025C4F295
:105270000500CFF6FF7B046855F80B004FF2A048FD
:105280000128CFF6FF7808D155F80800012804D18D
:1052900014F0010001D0FBF73DFD4FF2C446CFF6FC
:1052A000FF76A8594FF2A4490128CFF6FF7908D11B
:1052B00055F80900012804D114F0020001D0FBF7D1
:1052C0002BFD286840F2B00A4FF6FF77C4F2040ABB
:1052D0000128C0F2010706D1DAF80000384218BFF1
:1052E00014F004000CD1286801280ED1DAF800006F
:1052F000384218BF14F0080007D0FBF70FFD04E098
:10530000FBF706FD28680128F0D049F22045C4F2D9
:10531000802555F80B00012808D155F80800012810
:1053200004D114F0100001D0FBF7FCFCA8590128AF
:1053300008D155F80900012804D114F0200001D04B
:10534000FBF7F2FC2868012806D1DAF80004C00552
:1053500018BF14F040000FD12868012806D1DAF8F0
:105360000004C00518BF14F080000BD1BFF34F8FAD
:1053700001B0BDE8F08F00BFFBF7D2FC2868012820
:10538000F4D1ECE7FBF7D2FCBFF34F8F01B0BDE8DF
:10539000F08F0000B0B541F29820C4F20500046817
:1053A0004FF630456007C4F2060507D4A0061CD4AA
:1053B000600636D4BFF34F8FB0BD00BF2A882B895B
:1053C000688869891A4040F2F7131A4204D000F045
:1053D00053F9A006ECD508E0084040F27F110842DE
:1053E00018BF00F049F9A006E2D53221C4F2070146
:1053F000B5F80024CB88088809891A4040F2F713D1
:105400001A4205D000F03AF96006D3D509E000BF92
:10541000084040F27F11084218BF00F02FF96006E3
:10542000C8D540F2A440C4F20700427803788178DE
:10543000C07E85061BD412F0010518D11A40012A3E
:1054400015D801F00302032A11D001F00C020C2A36
:105450000DD001F03001302909D000F018011829D1
:1054600005D04106A6D540B2B0F1FF3FA2DCFBF764
:10547000FFFCBFF34F8FB0BD10B545F20004C4F27E
:1054800001042046402100F0D5FC012818BF10BDC2
:105490002046402100F080FC0120BDE8104004F0CF
:1054A0003FBA000080B5C10709D040F20041C4F204
:1054B000010140F223120A6043F210220A608107C0
:1054C00007D548F210010122C4F20401CAF2A55224
:1054D0000A6041074AF2015C42BF43F6FC32C4F263
:1054E0000502A2F800C0820640F28C0EC4F2050E3E
:1054F00044BF49F2A563CEF80030C30644F2FE3340
:10550000C4F2050304D519880CF107021143198070
:10551000410604D519880CF10202114319800006D6
:1055200042BF7720CEF87807CEF8800780BD000014
:10553000C1072FD1810735D4410706D543F6FC3189
:10554000C4F205014FF425420A80810640F28C0125
:10555000C4F2050144BF49F2A4620A60C20644F2E3
:10556000FE32C4F2050205D5138843F4254323F027
:1055700008031380430605D5138843F4254323F01D
:1055800003031380000642BF7620C1F87807C1F8F4
:105590008007704740F20041C4F2010100220A6016
:1055A0008107C9D548F210010022C4F20401CAF2F1
:1055B000A5520A604107C1D4C7E7000010B544F204
:1055C0000244C4F2050434F8040C800707D44EF6F4
:1055D000C410C0F2000040F2AD41FCF711F9207890
:1055E00000F0C0000F302070102060731E20FCF708
:1055F00037F9002010BD0000704700007047000020
:1056000070470000000000000000000000000000E3
:10561000EFF30980BFF36F8F154B1A681EF0100F60
:1056200008BF20ED108A20E9F04F10602DE9090035
:105630004FF0500080F31188BFF34F8FBFF36F8F8F
:1056400006F016FE4FF0000080F31188BDE8090057
:1056500019680868B0E8F04F1EF0100F08BFB0ECF2
:10566000108A80F30988BFF36F8F704700BF00BFB7
:10567000A891FF1F704700007047000070470000AE
:10568000704700007047000070470000704700003E
:10569000704700007047000070470000704700002E
:1056A000704700007047000070470000704700001E
:1056B000704700007047000070470000704700000E
:1056C000074B19680868B0E8F04F80F30988BFF30A
:1056D0006F8F4FF0000080F31188704700BF00BF4C
:1056E000A891FF1F7047000080B54FF0500080F375
:1056F0001188BFF36F8FBFF34F8F08F0DBF930B124
:105700004EF60450CEF200004FF0805101600020B0
:1057100080F3118880BD000080B540F28460C4F23F
:105720000100006842F2004149F2FC0C44F2001210
:10573000C0F2F401C1F6FF7CC4F20502C00704BF49
:1057400042F60051C0F23111CCF8001012F8DA3CE8
:1057500003F00703052B88BF80BDDFE803F00703D4
:105760000B030B1141F20021C0F27A01CCF80410B6
:1057700080BD00BF4FF40041CCF8041080BD00BFD5
:105780001068D2F800E01368126803F01F031206D5
:105790005CBF41F20021C0F27A015A1CC0F308201C
:1057A000B1FBF2F101304843012101EB1E71B0FB66
:1057B000F1F1CCF8041080BD10B54EF6885ECEF243
:1057C000000EDEF8001042F2004241F47001CEF803
:1057D000001040F28461C4F20101096849F2FC0C36
:1057E00044F20013C0F2F402C1F6FF7CC4F20503D8
:1057F000C90704BF42F60052C0F23112CCF80020B3
:1058000013F8DA1C01F00701052929D8DFE801F0B7
:1058100026040A040A0E00BF41F20022C0F27A02F6
:105820001CE000BF4FF4004218E000BF1868196880
:105830001C681B6804F01F041B065CBF41F20022B9
:10584000C0F27A02631CC0F30820B2FBF3F201300D
:105850005043012202EB1171B0FBF1F2CCF80420AD
:1058600000204EF8800C10BD70470000704700000B
:105870007047000070470000B0B544F20042044693
:1058800040F48060C4F2020290420D4602D155B944
:1058900012E000BF4EF6F410C0F2000040F26121A9
:1058A000FBF7AEFF45B125F0011028B94FF001100C
:1058B000A8436061B0BD00BF4EF6F410C0F2000016
:1058C00040F26221FBF79CFF4FF00110A84360619A
:1058D000B0BD0000B0B544F20042044640F4806020
:1058E000C4F2020290420D4602D155B90CE000BF4D
:1058F0004EF6F410C0F2000040F24A21FBF780FFA0
:1059000015B125F0011038B14EF6F410C0F20000C8
:1059100040F24B21FBF774FF6069284018BF01205B
:10592000B0BD000070B5164644F20042044640F493
:105930008060C4F2020290420D460FD1022D17D2B0
:10594000022E1FD2012E25D128014FF48041226959
:1059500001FA00F01043206170BD00BF4EF6F41054
:10596000C0F2000040F21621FBF74AFF022DE7D3F8
:105970004EF6F410C0F2000040F21721FBF740FF92
:10598000022EDFD34EF6F410C0F200004FF4067181
:10599000FBF736FF28014FF48041226901FA00F03D
:1059A00022EA0000206170BD70B5164644F2004244
:1059B000044640F48060C4F2020290420D460FD1CA
:1059C000022D17D2022E1FD2012E25D128014FF40D
:1059D0008051226901FA00F01043206170BD00BFC0
:1059E0004EF6F410C0F200004FF4F271FBF708FF1E
:1059F000022DE7D34EF6F410C0F2000040F2E5119C
:105A0000FBF7FEFE022EDFD34EF6F410C0F20000CC
:105A10004FF4F371FBF7F4FE28014FF48051226933
:105A200001FA00F022EA0000206170BD002A04BFE4
:105A30006FF00200704770B50E4644F20041044614
:105A400040F48060C4F202011546884208D1022E5B
:105A50000FD228684FEA3020052816D924E000BF6D
:105A60004EF6F410C0F20000C321FBF7C9FE022E6F
:105A7000EFD34EF6F410C0F20000C421FBF7C0FED5
:105A800028684FEA302005280ED8012101FA00F0DD
:105A900010F0270F08D068684FEA30100B280FD29B
:105AA000A868B0B920E000BF4EF6F410C0F20000C4
:105AB000C521FBF7A5FE68684FEA30100B28EFD32D
:105AC0004EF6F410C0F20000C621FBF799FEA8685C
:105AD00050B148F20201884206D04EF6F410C0F2EE
